:100000000C94BC020C9456040C94D9020C94EA0291
:100010000C94D9020C94D9020C94D9020C94D902F4
:100020000C94D9020C94FB0B0C94D9020C94D902B9
:100030000C94D9020C94D9020C94D9020C94D20BD2
:100040000C94D9020C94D9020C94D9020C94D902C4
:100050000C94D9020C94D9020C94D9020C94D902B4
:100060000C94D9020C94D9020C94D9020C94D902A4
:100070004D6164652062793A0000000000000000D4
:100080004C617273204C616E67686F6C6D0000008C
:10009000536967757264204F6464656E00000000E8
:1000A0005068696C69702047617573616B65720097
:1000B0002D2D2D2D2D2D2D2D2D2D2D2D2D2D2D009D
:1000C00043757272656E742073636F726500000011
:1000D00047414D45204F5645522100000000000089
:1000E000596F75722073636F7265207761733A0080
:1000F0005374617274696E6720696E0000000000BD
:10010000332E2E2E00000000000000000000000032
:10011000322E2E2E00000000000000000000000023
:10012000312E2E2E00000000000000000000000014
:10013000302E2E2E00000000000000000000000005
:100140005354415254210000000000000000000000
:100150004E4F44452032206E6F7420726561647981
:1001600045786974696E672067616D6500000000FD
:100170004D41494E204D454E550000000000000005
:1001800053746172742067616D65000000000000A7
:1001900053657420646966666963756C74790000E0
:1001A000486967682073636F726500000000000093
:1001B00043616C69627261746500000000000000B8
:1001C0004372656469747300000000000000000061
:1001D0004E6F726D616C00000000000000000000B6
:1001E0004861726400000000000000000000000090
:1001F000506C617965723100000000000000000061
:10020000506C61796572320000000000000000004F
:10021000506C61796572330000000000000000003E
:1002200000000000000000000000000000000000CE
:1002300000000000000000000000000000000000BE
:10024000484947482053434F52455300000000009F
:100250004C415253204C414E47484F4C4D000000FA
:100260005048494C49502047415553414B45520055
:10027000534947555244204F4444454E0000000026
:10028000000000000000000000065F5F06000000A4
:100290000007070007070000147F7F147F7F14000A
:1002A000242E6B6B3A120000466630180C66620012
:1002B000307A4F5D377A48000407030000000000E1
:1002C000001C3E63410000000041633E1C00000032
:1002D000082A3E1C1C3E2A0808083E3E080800006A
:1002E00000A0E060000000000808080808080000FE
:1002F00000006060000000006030180C0603010080
:100300003E7F594D7F3E000042427F7F40400000CB
:10031000627359496F660000226349497F360000C5
:10032000181C16137F7F1000276745457D39000094
:100330003C7E4B4979300000036371190F070000C0
:10034000367F49497F360000064F49693F1E00004D
:1003500000006C6C0000000000A0EC6C00000000CD
:10036000081C366341000000141414141414000017
:10037000004163361C080000020351590F060000BB
:100380003E7F415D5D1F1E007C7E13137E7C00005E
:10039000417F7F49497F36001C3E63414163220013
:1003A000417F7F41637F1C00417F7F495D41630046
:1003B000417F7F491D0103001C3E63415173720060
:1003C0007F7F08087F7F000000417F7F41000000A1
:1003D000307040417F3F0100417F7F081C77630000
:1003E000417F7F41406070007F7F060C067F7F0069
:1003F0007F7F060C187F7F001C3E6341633E1C001C
:10040000417F7F49090F06001E3F21717F5E00007A
:10041000417F7F19396F460026674D597B320000B6
:1004200003417F7F410300007F7F40407F7F0000CA
:100430001F3F60603F1F00007F7F3018307F7F00CC
:1004400063771C081C776300074F78784F0700001C
:100450006773594D47637100007F7F414100000081
:100460000103060C183060000041417F7F0000004E
:10047000080C0603060C0800808080808080808045
:100480000000030704000000207454543C7840002E
:10049000413F7F44447C3800387C44446C28000051
:1004A000307848493F7F4000387C54545C18000045
:1004B000487E7F490302000098BCA4A4F87C040095
:1004C000417F7F08047C780000447D7D400000006F
:1004D00040C484FD7D000000417F7F10386C4400E3
:1004E00000417F7F400000007C7C0C180C7C780071
:1004F0007C7C04047C780000387C44447C38000018
:1005000084FCF8A4243C1800183C24A4F8FC8400C3
:10051000447C78441C180000485C54547424000047
:1005200000043E7F442400003C7C40403C7C400072
:100530001C3C60603C1C00003C7C6030607C3C00EB
:10054000446C3810386C44009CBCA0A0FC7C0000BB
:100550004C64745C4C64000008083E774141000024
:1005600000000077770000004141773E0808000056
:10057000020301030203010011241FBECFEFD4E0E8
:10058000DEBFCDBF12E0A0E0B1E0EEE0F2E202C0DB
:1005900005900D92A230B107D9F722E0A2E0B2E0B7
:1005A00001C01D92A938B207E1F70E94A6060C947B
:1005B00005110C9400000C94900B10920014B19B48
:1005C000FECFFC010496209100142193E817F9074F
:1005D000D1F708951F920F920FB60F9211248F93A7
:1005E00080910402811105C0809104028F5F809385
:1005F00004028F910F900FBE0F901F901895CF930C
:10060000DF9300D000D0CDB7DEB7CE0101960E94B7
:10061000DD020F900F900F900F90DF91CF91089512
:100620000E94DB020E94FF023098389AF89485B746
:10063000826085BF85B78E7F85BF8BB780628BBF99
:1006400078940895CF93DF9300D000D0CDB7DEB774
:10065000CE0101960E94DD026B8160587C8170584A
:10066000862F062E000C990B97FF03C0919581955C
:100670009109282F872F072E000C990B97FF03C095
:10068000919581959109821768F4213530F01616FD
:1006900014F482E00EC081E00CC0223378F4109292
:1006A00003020CC0813540F0171614F483E001C03A
:1006B00084E08093030202C0823388F380910302B6
:1006C0000F900F900F900F90DF91CF9108950E949F
:1006D0002203862F062E000C990B97FF03C09195DD
:1006E00081959109282F872F072E000C990B97FFD2
:1006F00003C0919581959109821768F4213530F0F6
:10070000161614F482E00EC081E00CC0223378F497
:10071000109202020CC0813540F0171614F483E0E9
:1007200001C084E08093020202C0823388F380918A
:1007300002020895CF93DF931F92CDB7DEB7809169
:10074000040289831092040289810F90DF91CF9176
:1007500008950C94DB02CF93DF9300D000D0CDB787
:10076000DEB7CE0101960E94DD0279816A8180E0C8
:1007700090E00F900F900F900F90DF91CF91089520
:10078000CF93C82FEDE1F2E0118210823B9682E018
:10079000E537F807C9F780E80E947D0563E08BE242
:1007A0000E9466058BE20E9454051F928F9389E098
:1007B00091E09F938F930E94B20D67E88AE20E94B6
:1007C000660561EB89E20E94660560E680E60E94AC
:1007D000660560E680E70E94660566E088E20E94A2
:1007E000660540E16FEE8FE00E94BA058C2F0E94F3
:1007F0007905F89485B7826085BF85B78E7F85BF00
:100800008BB780648BBF78940F900F900F900F90F0
:10081000CF910895CF92DF92EF92FF920F931F93A3
:10082000CF938B01C82FC295C07F81E68C0F0E94A9
:100830005405F82E82E68C0F0E94540590E048E0A3
:10084000F49E9001112445E0969587954A95E1F72D
:10085000822B932BF8019183808385E68C0F0E9475
:1008600054058F70F8018283CA596801F3E0CF0EF6
:10087000D11CE12CF12CF801828190E0E816F906F8
:100880005CF48C2F0E945405F60181936F01FFEFF9
:10089000EF1AFF0ACF5FEFCFC801CF911F910F91E1
:1008A000FF90EF90DF90CF900C94D3051F920F92A2
:1008B0000FB60F9211242F933F934F935F936F9333
:1008C0007F938F939F93AF93BF93EF93FF9381E0B9
:1008D00090E090930702809306028CE20E945405F8
:1008E00080FF20C0609109028BE0689FB001112455
:1008F000635E7D4F80E090E00E940A0480910802D0
:100900008F5F8093080240E061E08CE20E94BA05AC
:10091000809109028F5F883018F48093090202C029
:10092000109209028CE20E94540581FF20C0609160
:1009300009028BE0689FB0011124635E7D4F81E066
:1009400090E00E940A04809108028F5F8093080261
:1009500040E062E08CE20E94BA05809109028F5F5C
:10096000883018F48093090202C01092090260E0F6
:100970008CE20E946605FF91EF91BF91AF919F912C
:100980008F917F916F915F914F913F912F910F9038
:100990000FBE0F901F901895CF93C82F8CE20E9426
:1009A00054054C2F440F4C5F8423482F50E02C2FCC
:1009B00030E0220F331F2C5F3F4F81E090E0421761
:1009C000530711F480E090E0CF910895EF92FF92E9
:1009D0000F931F93CF93DF93EC01809105020E9448
:1009E000CC0420910502892B41F42F5F209305024E
:1009F000233098F310920502F0CF822F8295807FEA
:100A00006A818B5C0E9466057E0123E0E20EF11C88
:100A100000E010E02A8130E0809105020217130700
:100A20007CF4F70161917F01202FF0E18F9F200D71
:100A30001124822F8A5C0E9466050F5F1F4FEACF48
:100A40006881798193E0769567959A95E1F782952B
:100A5000807F8F5C0E94660568816295660F607E6C
:100A6000809105028295807F8E5C0E946605809150
:100A700005028F57DF91CF911F910F91FF90EF905B
:100A80000C94B005C4980895C49A08950E94420534
:100A900080EC0E944F060E9444058FEF9FE2019771
:100AA000F1F700C000000895CF93C82F0E944205BF
:100AB00083E00E944F068C2F0E944F060E9453062F
:100AC000C82F0E9444058C2FCF910895CF93DF93B8
:100AD000D82FC62F0E94420582E00E944F068D2F1C
:100AE0000E944F068C2F0E944F06DF91CF910C94ED
:100AF0004405682F8FE00C946605CF93C82F0E94A1
:100B000047060E9446058EE00E945405807E80388C
:100B100049F01F928F9386E691E09F938F930E94F6
:100B2000B20D15C08C2F0E9479058EE00E945405ED
:100B3000807EC81791F01F928F9380EB91E09F9376
:100B40008F930E94B20D84EF91E00E94C80D0F9028
:100B50000F900F900F9081E001C080E0CF91089539
:100B6000CF93C82F0E9442058C2F0E944F06CF9131
:100B70000C9444051F93CF93DF93182FD62FC42FC7
:100B80000E94420585E00E944F06812F0E944F0679
:100B90008D2F0E944F068C2F0E944F06DF91CF9120
:100BA0001F910C944405FC01808191818D34910545
:100BB00019F120F48834910519F1089580359105D3
:100BC00021F08335910589F008958381809378021F
:100BD00084818093750285818093760286818093DB
:100BE00077028781809379020895838180930D0233
:100BF000848180930C020895838180930B02089571
:100C0000838180930A020895CF93DF93CDB7DEB737
:100C10002B970FB6F894DEBF0FBECDBF8130E1F049
:100C200060F08230F9F0833049F58DE490E09A83EA
:100C3000898381E08B838C831DC083E590E09A8358
:100C4000898382E08B838FEF8C83909111029111C5
:100C500001C08FE08D830EC083E590E09A83898385
:100C600082E004C023E530E03A8329838B838FEF51
:100C70008C831D82CE0101960E94E6042B960FB64E
:100C8000F894DEBF0FBECDBFDF91CF91089587B33B
:100C9000806B87BB8DB181658DB9C49A08958FB97A
:100CA000779BFECF08951FB8779BFECF8FB1089535
:100CB000B998B89AC19A329A3098389A85B78260B2
:100CC00085BF85B78E7F85BF8BB780628BBF8A98C3
:100CD0008BB780648BBF85B7826085BF0895DF9234
:100CE000EF92FF920F931F93CF93DF93CDB7DEB7B1
:100CF0002B970FB6F894DEBF0FBECDBF0E94220324
:100D00007B01D82E0E94AB03162F072F80E590E0C1
:100D10009A8389830E949A038C83DD82EE82FF820C
:100D20000887198786E08B83CE0101960E94E6042E
:100D30002B960FB6F894DEBF0FBECDBFDF91CF91DB
:100D40001F910F91FF90EF90DF9008950E94580639
:100D50000E949D0B6FE170E080E090E00E94230C08
:100D60000E9410030E94A9030E94070B0E94F3082F
:100D700080E00E94C0030E94A40B0E94CE0B7894D6
:100D800081E00E94040687EF91E00E94C80D0E9456
:100D90006F062FEF8FE791E0215080409040E1F700
:100DA00000C000C08091100281110EC00E94B809DD
:100DB0002FEF8FE791E0215080409040E1F700C095
:100DC00000C010920B02E3CF80910B02882389F0C0
:100DD00080910E0290910F020E945F0A0E94CA0B3E
:100DE00010920C021092100210920F0210920E023A
:100DF000CECF80910E0290910F029C012F5F3F4F4A
:100E000030930F0220930E020E94290AC0CF88233C
:100E100021F081E08093110208951092110208954B
:100E2000CF92DF92EF92FF920F931F93CF93DF93B6
:100E3000CDB7DEB761970FB6F894DEBF0FBECDBF5A
:100E40000E94FC0A60E080E00E94DF0A40E150E07E
:100E500060E472E08E010F5F1F4FC8010E94580DC1
:100E6000C8010E945F0B60E081E00E94DF0A40E160
:100E700050E060E572E0C8010E94580DC8010E9470
:100E80005F0B60E082E00E94DF0A82E1C82E82E010
:100E9000D82EF60181818F9380818F939EEFE92E6A
:100EA00091E0F92EFF92EF921F930F930E94F80D9D
:100EB000C8010E945F0B60E083E00E94DF0A40E10E
:100EC00050E060E672E0C8010E94580DC8010E941F
:100ED0005F0B60E084E00E94DF0AF60183818F935C
:100EE00082818F93FF92EF921F930F930E94F80DD0
:100EF000C8010E945F0B60E085E00E94DF0A40E1CC
:100F000050E060E772E0C8010E94580DC8010E94DD
:100F10005F0B60E086E00E94DF0AF60185818F9317
:100F200084818F93FF92EF921F930F930E94F80D8D
:100F3000C8010E945F0BFFEF2FEF8BE3F1502040C1
:100F40008040E1F700C000000FB6F894DEBF0FBE8E
:100F5000CDBF61960FB6F894DEBF0FBECDBFDF9157
:100F6000CF911F910F91FF90EF90DF90CF90089558
:100F70000F931F93CF93DF938C01EB0187E190E0F8
:100F80000E94370CFC011183008313821282148AA1
:100F9000D68BC58BDF91CF911F910F910895FC01E6
:100FA0002489283078F431E0320F348BE20FF11DC0
:100FB000E20FF11D75836483FB019383828380E0DC
:100FC00090E008958FEF9FEF0895E62FF0E0EE0F89
:100FD000FF1FE05FFD4F208131812817390710F492
:100FE0009183808380E00C9410070F931F93CF931D
:100FF000DF93CDB7DEB760970FB6F894DEBF0FBEB4
:10100000CDBF8C01862F642F0E94DF0A40E150E0A3
:10101000B801CE0101960E94580DCE0101960E94A2
:101020005F0B60960FB6F894DEBF0FBECDBFDF91A9
:10103000CF911F910F910895809308010E94FC0A9F
:1010400080911802882309F443C04AE062E080EFEF
:1010500090E00E94F5074AE063E080E091E00E94A2
:10106000F5072FEF8FEF9EE0215080409040E1F791
:1010700000C000004AE063E080E191E00E94F507D3
:101080002FEF8FEF9EE0215080409040E1F700C0AD
:1010900000004AE063E080E291E00E94F5072FEF54
:1010A0008FEF9EE0215080409040E1F700C00000AB
:1010B0004AE063E080E391E00E94F50781E08093DD
:1010C000100280E00E9404060E94BF0B0C94FC0AF0
:1010D00040E063E080E491E00E94F50740E063E0D7
:1010E00080E591E00E94F5072FEF8FE795E2215010
:1010F00080409040E1F700C0000008958F929F92D9
:10110000AF92BF92CF92DF92EF92FF921F93CF9355
:10111000DF93CDB7DEB761970FB6F894DEBF0FBE91
:10112000CDBF5C014B0160E080E00E94DF0AD50189
:101130006D917C9140E150E0CE0101960E94580DE6
:101140000E94FC0ACE0101960E945F0B40E061E024
:1011500080EB90E00E94F507650112E0E12CF12C94
:10116000B1E08B1A9108F501848990E0E816F90640
:1011700024F0812F0E94E70A1BC060E0812F0E94AB
:10118000DF0AD6011496ED91FC911597608171816B
:1011900040E150E0CE0101960E94580DCE0101962B
:1011A0008E149F0419F40E94770B02C00E945F0BFB
:1011B000BFEFEB1AFB0A1F5FE2E0CE0ED11C183026
:1011C00091F661960FB6F894DEBF0FBECDBFDF91EA
:1011D000CF911F91FF90EF90DF90CF90BF90AF9095
:1011E0009F908F9008952F923F924F925F926F92AF
:1011F0007F928F929F92AF92BF92CF92DF92EF92A7
:10120000FF920F931F93CF93DF9300D000D000D0B5
:10121000CDB7DEB760E070E080E791E00E94B807EC
:101220009E838D8360E070E080E891E00E94B807C3
:101230008C0160E070E080E991E00E94B8077C01D9
:1012400060E177E080EA91E00E94B8073C0160E04D
:1012500070E080EB91E00E94B8072C016EEA7AE022
:1012600080EC91E00E94B8071C0167E077E080ED18
:1012700091E00E94B8079A83898367E077E080EE67
:1012800091E00E94B8079C838B836CE178E080EF4B
:1012900091E00E94B8075C016CE178E080E092E0A8
:1012A0000E94B8076C016CE178E080E192E00E9456
:1012B000B8074C01B8018D819E810E94CF07B5010E
:1012C000C8010E94CF07B601C8010E94CF07B40130
:1012D000C8010E94CF07B7018D819E810E94CF0770
:1012E000B3018D819E810E94CF07B2018D819E81C5
:1012F0000E94CF07B1018D819E810E94CF07698135
:101300007A81C7010E94CF076B817C81C7010E944F
:10131000CF078D819E8190937C0280937B02FC019C
:10132000848990E090937E0280937D0261E070E07A
:10133000CF010E947E0880917B0290917C022696CC
:101340000FB6F894DEBF0FBECDBFDF91CF911F91D6
:101350000F91FF90EF90DF90CF90BF90AF909F9054
:101360008F907F906F905F904F903F902F90089557
:101370000E946703482F823009F446C080917B02A7
:1013800090917C02433018F4413071F137C02091C4
:10139000060130910701433019F0443071F02EC03E
:1013A00021503109309307012093060112161306CC
:1013B0002CF1FC01248930E00EC02F5F3F4F3093A9
:1013C000070120930601FC01448950E042175307AE
:1013D0003CF421E030E030930701209306010EC079
:1013E00027303105B4F70AC0FC0182819381009750
:1013F00059F090937C0280937B0206C060910601B5
:10140000709107010E947E080E949A03882301F1CF
:10141000809106019091070120917B0230917C021E
:10142000FC013196EE0FFF1FE20FF31FA081B18187
:101430005596ED91FC915697309709F00994549682
:101440008C915497882321F0B0937C02A0937B0267
:1014500008950F931F93CF93DF9300D000D000D057
:10146000CDB7DEB7182F092F40E063E080EC90E0A5
:101470000E94F50760E084E00E94DF0A0F931F934B
:101480008EEF91E09F938F938E010F5F1F4F1F93FD
:101490000F930E94F80DC8010E945F0B0F900F90F0
:1014A0000F900F900F900F9026960FB6F894DEBF16
:1014B0000FBECDBFDF91CF911F910F910895EF9295
:1014C000FF920F931F93CF93DF9300D000D000D0F3
:1014D000CDB7DEB78C011F938F938EEF91E09F9372
:1014E0008F93CE0101967C019F938F930E94F80DFC
:1014F0000E94FC0A40E061E080ED90E00E94F50768
:1015000040E062E080EE90E00E94F50760E083E05A
:101510000E94DF0AC7010E945F0B9FEF2FEF8BE352
:10152000915020408040E1F700C000006091080128
:10153000C8010E94E5070F900F900F900F900F9039
:101540000F9026960FB6F894DEBF0FBECDBFDF9189
:10155000CF911F910F91FF90EF9008950F931F93DC
:10156000CF930E94FC0A00E710E0C1E040E06C2F3E
:10157000C8010E94F507005F1F4FCF5FC530B1F76C
:101580002FEF8FEF9AE4215080409040E1F700C0A8
:101590000000CF911F910F910895883018F4805565
:1015A00080930012089587FD09C0982F9F70909333
:1015B000001282958F70805F809300120895CF9300
:1015C000C62F0E94CD0A8C2FCF910C94D30ACF93B3
:1015D000C82F60E00E94DF0AE0E0F3E11192E038FA
:1015E00083E1F807D9F760E08C2FCF910C94DF0AE4
:1015F00060E080E00C94DF0ACF93C0E08C2F0E9463
:10160000E70ACF5FC830D1F7CF910C94F80AE0E039
:10161000F2E18EEA808381EA80838AED808382E131
:10162000808388EC808388EA80838FE3808385EDE4
:10163000808380E8808381E8808380E5808389EDF2
:10164000808381E2808380E2808382E080838BEDEF
:10165000808380E380838DEA8083108284EA8083A4
:1016600086EA80838FEA80830E94FC0A0C94F80A41
:1016700028E0829FC0011124A0E0B3E19451FC0155
:10168000EA0FFB1FE058FD4FE491ED93A83023E1F2
:10169000B207A9F7089528E0829FC0011124A0E0B5
:1016A000B3E19451FC01EA0FFB1FE058FD4FE491B8
:1016B000E095ED93A83023E1B207A1F70895CF9309
:1016C000DF932DE730E01092001321503109D9F754
:1016D0001092001220E120930012EC0189918823DE
:1016E00019F00E94380BFACFDF91CF910895CF9374
:1016F000DF932DE730E04FEF409300132150310985
:10170000D9F71092001220E120930012EC01899188
:10171000882319F00E944B0BFACFDF91CF910895E7
:1017200088E483BF83B7806383BF83B7816083BF4F
:1017300084E182BF8AE081BF089585B7806885BF54
:1017400080B7806280BF08951FBC95E09EBD89B7B9
:10175000806889BF20E23EEF3DBD2CBD10928B001A
:1017600090938A00EDE7F0E080818460808380E4DC
:101770009DEE90938900809388007894089510924C
:10178000190210921A0210921B0210921C0285E09C
:101790008EBD08958EB58E7F8EBD089585E08093B1
:1017A0008A0008951F920F920FB60F9211248F9303
:1017B0009F93AF93BF938091190290911A02A091C9
:1017C0001B02B0911C020196A11DB11D809319024C
:1017D00090931A02A0931B02B0931C0280E29EEF2A
:1017E0009DBD8CBDBF91AF919F918F910F900FBE0A
:1017F0000F901F9018951F920F920FB60F92112401
:101800008F939F9380910D02882331F010920D02E7
:1018100081E08093180202C01092180280E49DEECD
:1018200090938900809388009F918F910F900FBEB5
:101830000F901F9018955D9BFECF8CB908955F9B0C
:10184000FECF8CB108950F931F93072F182F292FC8
:10185000332700BD69B988E18AB98EE880BD6FE1A0
:101860007CE08BE19CE01F910F910C94670D0F932E
:101870001F93CF93DF938230910510F482E090E0C4
:10188000E0918102F091820220E030E0A0E0B0E03F
:10189000309719F14081518102811381481759070E
:1018A000C8F08417950769F4109731F012960C93DD
:1018B000129713961C9327C0009381021093820203
:1018C00022C02115310519F04217530718F49A0167
:1018D000BD01EF01DF01F801DBCF21153105F9F082
:1018E000281B390B2430310580F48A819B816115D6
:1018F000710521F0FB019383828304C090938202DF
:1019000080938102FE01329644C0FE01E20FF31F74
:101910008193919322503109398328833AC02091D1
:101920007F0230918002232B41F4209102013091FB
:1019300003013093800220937F02209100013091B7
:1019400001012115310541F42DB73EB74091040145
:1019500050910501241B350BE0917F02F09180022C
:10196000E217F307A0F42E1B3F0B2817390778F076
:10197000AC014E5F5F4F2417350748F04E0F5F1FD5
:101980005093800240937F028193919302C0E0E0E4
:10199000F0E0CF01DF91CF911F910F910895CF9388
:1019A000DF93009709F481C0FC0132971382128201
:1019B000A0918102B0918202109781F4208131813F
:1019C000820F931F20917F023091800228173907E0
:1019D00051F5F0938002E0937F0267C0ED0120E0B3
:1019E00030E0CE17DF0740F44A815B819E0141154C
:1019F0005105F1F0EA01F5CFD383C28340815181D3
:101A0000840F951FC817D90759F488819981840FCD
:101A1000951F0296918380838A819B819383828321
:101A20002115310529F4F0938202E09381023DC033
:101A3000E901FB83EA8349915991C40FD51FEC1743
:101A4000FD0761F480819181840F951F0296E90161
:101A500099838883828193819B838A83E0E0F0E08D
:101A600012968D919C911397009719F0FD01DC015E
:101A7000F7CF8D919C9111979D012E5F3F4F820F63
:101A8000931F20917F02309180022817390769F453
:101A9000309729F4109282021092810202C01382C0
:101AA0001282B0938002A0937F02DF91CF910895BC
:101AB000FB01DC014150504048F005900D920020A0
:101AC000C9F701C01D9241505040E0F708950F93AF
:101AD0001F93CF93DF93009731F46115710519F4CB
:101AE00080E090E03AC08B01EC016EE070E081E0B4
:101AF00090E00E94FB0FFC01892B91F380E8838327
:101B00000115110571F01387028781E883838091A5
:101B1000830290918402892B21F4F0938402E09354
:101B200083022097C9F0D187C08783818260838335
:101B30008091850290918602892B71F4F093860240
:101B4000E09385028091870290918802892B21F48D
:101B5000F0938802E0938702CF01DF91CF911F912C
:101B60000F910895A0E0B0E0E8EBFDE00C94DE10EA
:101B7000AE014B5F5F4FFA0161917191AF018091AE
:101B80008502909186020E941A0EE2E00C94FA10EF
:101B90000F931F93CF93DF93E0918502F09186021C
:101BA000238121FF1BC08C01D0E0C0E0F8018191AE
:101BB0008F016091850270918602DB011896ED918C
:101BC000FC911997882331F00995892B79F3DFEF80
:101BD000CFEFECCF8AE00995892B19F08FEF9FEFBB
:101BE00002C08D2F9C2FDF91CF911F910F910895EF
:101BF000AEE0B0E0EEEFFDE00C94DC100D891E8944
:101C000086E08C831A8309838FEF9FE79E838D8301
:101C1000AE01475E5F4F6F89788DCE0101960E94BD
:101C20001A0EEF81F885E00FF11F10822E96E4E086
:101C30000C94F810ABE0B0E0E0E2FEE00C94CE10C3
:101C40006C017B018A01FC0117821682838181FF6E
:101C5000CCC1CE0101963C01F6019381F70193FDC1
:101C6000859193FF81917F01882309F4BAC1853260
:101C700039F493FD859193FF81917F01853229F499
:101C8000B60190E00E943410E7CF912C212C312C2A
:101C9000FFE1F315D8F08B3279F038F4803279F027
:101CA0008332A1F4232D20611DC08D3261F0803379
:101CB00069F4232D216016C0832D8260382EE32D18
:101CC000E4603E2E2AC0F32DF8601DC037FC2DC005
:101CD00020ED280F2A3040F08E32B9F436FC81C155
:101CE000232D2064322E19C036FE06C08AE0989E4D
:101CF000200D1124922E11C0EAE02E9E200D1124F9
:101D0000222EF32DF0623F2E08C08C3621F4832D55
:101D10008068382E02C0883641F4F70193FD859122
:101D200093FF81917F018111B3CF982F9F7D9554AF
:101D3000933028F40C5F1F4F9FE399830DC08336C7
:101D400031F0833771F0833509F059C021C0F801B3
:101D5000808189830E5F1F4F88248394912C5301C7
:101D600013C02801F2E04F0E511CF801A080B18091
:101D700036FE03C0692D70E002C06FEF7FEFC50132
:101D80000E9429104C018201F32DFF773F2E16C0CF
:101D9000280122E0420E511CF801A080B18036FEDD
:101DA00003C0692D70E002C06FEF7FEFC5010E9494
:101DB00017104C01F32DF0683F2E820133FC1BC03D
:101DC000822D90E088169906B0F4B60180E290E08A
:101DD0000E9434102A94F4CFF50137FC859137FE28
:101DE00081915F01B60190E00E94341021102A9485
:101DF00021E0821A91088114910471F7E8C08436B9
:101E000011F0893641F5F80137FE07C06081718114
:101E1000828193810C5F1F4F08C060817181072E02
:101E2000000C880B990B0E5F1F4FF32DFF763F2E92
:101E300097FF09C090958095709561957F4F8F4F62
:101E40009F4FF0683F2E2AE030E0A3010E947010FF
:101E5000882E861845C0853731F4232D2F7EB22E6B
:101E60002AE030E025C0932D997FB92E8F36C1F03E
:101E700018F4883579F0B5C0803719F0883721F02B
:101E8000B0C0E92FE061BE2EB4FE0DC0FB2DF460A2
:101E9000BF2E09C034FE0AC0292F2660B22E06C00C
:101EA00028E030E005C020E130E002C020E132E06F
:101EB000F801B7FE07C060817181828193810C5F58
:101EC0001F4F06C06081718180E090E00E5F1F4F60
:101ED000A3010E947010882E8618FB2DFF773F2EDD
:101EE00036FE0DC0232D2E7FA22E891458F434FE09
:101EF0000BC032FC09C0832D8E7EA82E05C0B82CE5
:101F0000A32C03C0B82C01C0B92CA4FE0FC0FE0145
:101F1000E80DF11D8081803321F49A2D997EA92E40
:101F200009C0A2FE06C0B394B39404C08A2D86787B
:101F300009F0B394A3FC11C0A0FE06C0B21488F44B
:101F4000280C922C9B180EC0B21460F4B60180E2EB
:101F500090E00E943410B394F7CFB21418F42B1809
:101F600002C0982C212CA4FE10C0B60180E390E0A2
:101F70000E943410A2FE17C0A1FC03C088E790E0C5
:101F800002C088E590E0B6010CC08A2D867859F031
:101F9000A1FE02C08BE201C080E2A7FC8DE2B60187
:101FA00090E00E943410891438F4B60180E390E088
:101FB0000E9434109A94F7CF8A94F301E80DF11D32
:101FC0008081B60190E00E9434108110F5CF22206C
:101FD00009F442CEB60180E290E00E9434102A94C7
:101FE000F6CFF6018681978102C08FEF9FEF2B9687
:101FF000E2E10C94EA100F931F93CF93DF93869F37
:102000008001879F100D969F100D1124C8010E941A
:10201000370CEC01009729F0A80160E070E00E9405
:102020002210CE01DF91CF911F910F910895FC01F5
:102030000590615070400110D8F7809590958E0FF3
:102040009F1F0895DC0101C06D9341505040E0F79F
:102050000895FC016150704001900110D8F78095FF
:1020600090958E0F9F1F08950F931F93CF93DF932B
:10207000FB01238121FD03C08FEF9FEF2CC022FFC6
:1020800016C046815781248135814217530744F495
:10209000A081B1819D012F5F3F4F318320838C93BD
:1020A000268137812F5F3F4F3783268314C08B01F2
:1020B000EC01FB010084F185E02D0995892BE1F607
:1020C000D80116968D919C911797019617969C931F
:1020D0008E931697CE01DF91CF911F910F910895A6
:1020E000FA01AA27283051F1203181F1E8946F9349
:1020F0006E7F6E5F7F4F8F4F9F4FAF4FB1E03ED0EF
:10210000B4E03CD0670F781F891F9A1FA11D680F8C
:10211000791F8A1F911DA11D6A0F711D811D911DBF
:10212000A11D20D009F468943F912AE0269F112434
:102130003019305D3193DEF6CF010895462F477098
:10214000405D4193B3E00FD0C9F7F6CF462F4F70F3
:10215000405D4A3318F0495D31FD4052419302D051
:10216000A9F7EACFB4E0A6959795879577956795F7
:10217000BA95C9F700976105710508959B01AC01F7
:102180000A2E06945795479537952795BA95C9F71E
:10219000620F731F841F951FA01D08952F923F92F9
:1021A0004F925F926F927F928F929F92AF92BF9267
:1021B000CF92DF92EF92FF920F931F93CF93DF9313
:1021C000CDB7DEB7CA1BDB0B0FB6F894DEBF0FBE70
:1021D000CDBF09942A88398848885F846E847D84BD
:1021E0008C849B84AA84B984C884DF80EE80FD80BF
:1021F0000C811B81AA81B981CE0FD11D0FB6F89435
:0E220000DEBF0FBECDBFED010895F894FFCFF5
:10220E0000008902200001000143414E494E544511
:10221E003A202578200A0043414E2D4552524F5206
:10222E002000455741524E2000525857415220002F
:10223E00545857415220005258455020005458458A
:10224E005020005458424F20005258304F565220C2
:10225E0000696E7465727275707420666C61673A8F
:10226E00202564200A004D435032353135206973E4
:10227E00204E4F5420696E20436F6E6669677572EB
:10228E006174696F6E206D6F64652061667465722E
:10229E00207265736574212049747320636F6E66B6
:1022AE0069672062697473206172652025780A005F
:1022BE004D435032353135206973204E4F542069CD
:1022CE006E20636F7272656374206D6F646520613A
:1022DE00667465722072657365742120497473206B
:1022EE00636F6E6669672062697473206172652020
:1022FE0025780A000A210073746172742000256427
:02230E000000CD
:040000050080020C69
:00000001FF
