:100000000C94BC020C9456040C94D9020C94EA0291
:100010000C94D9020C94D9020C94D9020C94D902F4
:100020000C94D9020C94ED0B0C94D9020C94D902C7
:100030000C94D9020C94D9020C94D9020C94C40BE0
:100040000C94D9020C94D9020C94D9020C94D902C4
:100050000C94D9020C94D9020C94D9020C94D902B4
:100060000C94D9020C94D9020C94D9020C94D902A4
:100070004D6164652062793A0000000000000000D4
:100080004C617273204C616E67686F6C6D0000008C
:10009000536967757264204F6464656E00000000E8
:1000A0005068696C69702047617573616B65720097
:1000B0002D2D2D2D2D2D2D2D2D2D2D2D2D2D2D009D
:1000C00043757272656E742073636F726500000011
:1000D00047414D45204F5645522100000000000089
:1000E000596F75722073636F7265207761733A0080
:1000F0005374617274696E6720696E0000000000BD
:10010000332E2E2E00000000000000000000000032
:10011000322E2E2E00000000000000000000000023
:10012000312E2E2E00000000000000000000000014
:10013000302E2E2E00000000000000000000000005
:100140005354415254210000000000000000000000
:100150004E4F44452032206E6F7420726561647981
:1001600045786974696E672067616D6500000000FD
:100170004D41494E204D454E550000000000000005
:1001800053746172742067616D65000000000000A7
:1001900053657420646966666963756C74790000E0
:1001A000486967682073636F726500000000000093
:1001B00043616C69627261746500000000000000B8
:1001C0004372656469747300000000000000000061
:1001D0004E6F726D616C00000000000000000000B6
:1001E0004861726400000000000000000000000090
:1001F000506C617965723100000000000000000061
:10020000506C61796572320000000000000000004F
:10021000506C61796572330000000000000000003E
:1002200000000000000000000000000000000000CE
:1002300000000000000000000000000000000000BE
:10024000484947482053434F52455300000000009F
:100250004C415253204C414E47484F4C4D000000FA
:100260005048494C49502047415553414B45520055
:10027000534947555244204F4444454E0000000026
:10028000000000000000000000065F5F06000000A4
:100290000007070007070000147F7F147F7F14000A
:1002A000242E6B6B3A120000466630180C66620012
:1002B000307A4F5D377A48000407030000000000E1
:1002C000001C3E63410000000041633E1C00000032
:1002D000082A3E1C1C3E2A0808083E3E080800006A
:1002E00000A0E060000000000808080808080000FE
:1002F00000006060000000006030180C0603010080
:100300003E7F594D7F3E000042427F7F40400000CB
:10031000627359496F660000226349497F360000C5
:10032000181C16137F7F1000276745457D39000094
:100330003C7E4B4979300000036371190F070000C0
:10034000367F49497F360000064F49693F1E00004D
:1003500000006C6C0000000000A0EC6C00000000CD
:10036000081C366341000000141414141414000017
:10037000004163361C080000020351590F060000BB
:100380003E7F415D5D1F1E007C7E13137E7C00005E
:10039000417F7F49497F36001C3E63414163220013
:1003A000417F7F41637F1C00417F7F495D41630046
:1003B000417F7F491D0103001C3E63415173720060
:1003C0007F7F08087F7F000000417F7F41000000A1
:1003D000307040417F3F0100417F7F081C77630000
:1003E000417F7F41406070007F7F060C067F7F0069
:1003F0007F7F060C187F7F001C3E6341633E1C001C
:10040000417F7F49090F06001E3F21717F5E00007A
:10041000417F7F19396F460026674D597B320000B6
:1004200003417F7F410300007F7F40407F7F0000CA
:100430001F3F60603F1F00007F7F3018307F7F00CC
:1004400063771C081C776300074F78784F0700001C
:100450006773594D47637100007F7F414100000081
:100460000103060C183060000041417F7F0000004E
:10047000080C0603060C0800808080808080808045
:100480000000030704000000207454543C7840002E
:10049000413F7F44447C3800387C44446C28000051
:1004A000307848493F7F4000387C54545C18000045
:1004B000487E7F490302000098BCA4A4F87C040095
:1004C000417F7F08047C780000447D7D400000006F
:1004D00040C484FD7D000000417F7F10386C4400E3
:1004E00000417F7F400000007C7C0C180C7C780071
:1004F0007C7C04047C780000387C44447C38000018
:1005000084FCF8A4243C1800183C24A4F8FC8400C3
:10051000447C78441C180000485C54547424000047
:1005200000043E7F442400003C7C40403C7C400072
:100530001C3C60603C1C00003C7C6030607C3C00EB
:10054000446C3810386C44009CBCA0A0FC7C0000BB
:100550004C64745C4C64000008083E774141000024
:1005600000000077770000004141773E0808000056
:10057000020301030203010011241FBECFEFD4E0E8
:10058000DEBFCDBF12E0A0E0B1E0E2EFF1E202C0D9
:1005900005900D92A230B107D9F722E0A2E0B2E0B7
:1005A00001C01D92A838B207E1F70E94A1060C9481
:1005B000F7100C9400000C94820B10920014B19B65
:1005C000FECFFC010496209100142193E817F9074F
:1005D000D1F708951F920F920FB60F9211248F93A7
:1005E00080910402811105C0809104028F5F809385
:1005F00004028F910F900FBE0F901F901895CF930C
:10060000DF9300D000D0CDB7DEB7CE0101960E94B7
:10061000DD020F900F900F900F90DF91CF91089512
:100620000E94DB020E94FF023098389AF89485B746
:10063000826085BF85B78E7F85BF8BB780628BBF99
:1006400078940895CF93DF9300D000D0CDB7DEB774
:10065000CE0101960E94DD026B8160587C8170584A
:10066000862F062E000C990B97FF03C0919581955C
:100670009109282F872F072E000C990B97FF03C095
:10068000919581959109821768F4213530F01616FD
:1006900014F482E00EC081E00CC0223378F4109292
:1006A00003020CC0813540F0171614F483E001C03A
:1006B00084E08093030202C0823388F380910302B6
:1006C0000F900F900F900F90DF91CF9108950E949F
:1006D0002203862F062E000C990B97FF03C09195DD
:1006E00081959109282F872F072E000C990B97FFD2
:1006F00003C0919581959109821768F4213530F0F6
:10070000161614F482E00EC081E00CC0223378F497
:10071000109202020CC0813540F0171614F483E0E9
:1007200001C084E08093020202C0823388F380918A
:1007300002020895CF93DF931F92CDB7DEB7809169
:10074000040289831092040289810F90DF91CF9176
:1007500008950C94DB02CF93DF9300D000D0CDB787
:10076000DEB7CE0101960E94DD0279816A8180E0C8
:1007700090E00F900F900F900F90DF91CF91089520
:10078000CF93C82FECE1F2E0118210823B9682E019
:10079000E437F807C9F780E80E947D0563E08BE243
:1007A0000E9466058BE20E9454051F928F9389E098
:1007B00091E09F938F930E94A40D67E88AE20E94C4
:1007C000660561EB89E20E94660560E680E60E94AC
:1007D000660560E680E70E94660566E088E20E94A2
:1007E000660540E16FEE8FE00E94BA058C2F0E94F3
:1007F0007905F89485B7826085BF85B78E7F85BF00
:100800008BB780648BBF78940F900F900F900F90F0
:10081000CF910895CF92DF92EF92FF920F931F93A3
:10082000CF938B01C82FC295C07F81E68C0F0E94A9
:100830005405F82E82E68C0F0E94540590E048E0A3
:10084000F49E9001112445E0969587954A95E1F72D
:10085000822B932BF8019183808385E68C0F0E9475
:1008600054058F70F8018283CA596801F3E0CF0EF6
:10087000D11CE12CF12CF801828190E0E816F906F8
:100880005CF48C2F0E945405F60181936F01FFEFF9
:10089000EF1AFF0ACF5FEFCFC801CF911F910F91E1
:1008A000FF90EF90DF90CF900C94D3051F920F92A2
:1008B0000FB60F9211242F933F934F935F936F9333
:1008C0007F938F939F93AF93BF93EF93FF9381E0B9
:1008D00090E090930702809306028CE20E945405F8
:1008E00080FF20C0609109028BE0689FB001112455
:1008F000645E7D4F80E090E00E940A0480910802CF
:100900008F5F8093080240E061E08CE20E94BA05AC
:10091000809109028F5F883018F48093090202C029
:10092000109209028CE20E94540581FF20C0609160
:1009300009028BE0689FB0011124645E7D4F81E065
:1009400090E00E940A04809108028F5F8093080261
:1009500040E062E08CE20E94BA05809109028F5F5C
:10096000883018F48093090202C01092090260E0F6
:100970008CE20E946605FF91EF91BF91AF919F912C
:100980008F917F916F915F914F913F912F910F9038
:100990000FBE0F901F901895CF93C82F8CE20E9426
:1009A00054054C2F440F4C5F8423482F50E02C2FCC
:1009B00030E0220F331F2C5F3F4F81E090E0421761
:1009C000530711F480E090E0CF910895EF92FF92E9
:1009D0000F931F93CF93DF93EC01809105020E9448
:1009E000CC0420910502892B41F42F5F209305024E
:1009F000233098F310920502F0CF822F8295807FEA
:100A00006A818B5C0E9466057E0123E0E20EF11C88
:100A100000E010E02A8130E0809105020217130700
:100A20007CF4F70161917F01202FF0E18F9F200D71
:100A30001124822F8A5C0E9466050F5F1F4FEACF48
:100A40006881798193E0769567959A95E1F782952B
:100A5000807F8F5C0E94660568816295660F607E6C
:100A6000809105028295807F8E5C0E946605809150
:100A700005028F57DF91CF911F910F91FF90EF905B
:100A80000C94B005C4980895C49A08950E94420534
:100A900080EC0E944A060E9444058FEF9FE2019776
:100AA000F1F700C000000895CF93C82F0E944205BF
:100AB00083E00E944A068C2F0E944A060E944E063E
:100AC000C82F0E9444058C2FCF910895CF93DF93B8
:100AD000D82FC62F0E94420582E00E944A068D2F21
:100AE0000E944A068C2F0E944A06DF91CF910C94F7
:100AF0004405682F8FE00C946605CF93C82F0E94A1
:100B000042060E9446058EE00E945405807E803891
:100B100049F01F928F9386E691E09F938F930E94F6
:100B2000A40D15C08C2F0E9479058EE00E945405FB
:100B3000807EC81791F01F928F9380EB91E09F9376
:100B40008F930E94A40D84EF91E00E94BA0D0F9044
:100B50000F900F900F9081E001C080E0CF91089539
:100B6000CF93C82F0E9442058C2F0E944A06CF9136
:100B70000C9444051F93CF93DF93182FD62FC42FC7
:100B80000E94420585E00E944A06812F0E944A0683
:100B90008D2F0E944A068C2F0E944A06DF91CF912A
:100BA0001F910C944405FC01808191818D34910545
:100BB00019F120F48834910519F1089580359105D3
:100BC00021F08335910589F0089583818093770220
:100BD00084818093740285818093750286818093DD
:100BE00076028781809378020895838180930D0235
:100BF000848180930C020895838180930B02089571
:100C0000838180930A020895CF93DF93CDB7DEB737
:100C10002B970FB6F894DEBF0FBECDBF8130B9F071
:100C200060F08230D1F0833021F58DE490E09A833A
:100C3000898381E08B838C8318C083E590E09A835D
:100C4000898382E08B838FEF8C838D830EC083E555
:100C500090E09A83898382E004C023E530E03A8300
:100C600029838B838FEF8C831D82CE0101960E9496
:100C7000E6042B960FB6F894DEBF0FBECDBFDF9112
:100C8000CF91089587B3806B87BB8DB181658DB996
:100C9000C49A08958FB9779BFECF08951FB8779BAC
:100CA000FECF8FB10895B998B89AC19A329A309808
:100CB000389A85B7826085BF85B78E7F85BF8BB731
:100CC00080628BBF8A988BB780648BBF85B7826048
:100CD00085BF0895DF92EF92FF920F931F93CF93FA
:100CE000DF93CDB7DEB72B970FB6F894DEBF0FBEFC
:100CF000CDBF0E9422037B01D82E0E94AB03162F8A
:100D0000072F80E590E09A8389830E949A038C8361
:100D1000DD82EE82FF820887198786E08B83CE0111
:100D200001960E94E6042B960FB6F894DEBF0FBE24
:100D3000CDBFDF91CF911F910F91FF90EF90DF908A
:100D400008950E9453060E948F0B6FE170E080E0CF
:100D500090E00E94150C0E9410030E94A9030E94BB
:100D6000F90A0E94E50880E00E94C0030E94960BE9
:100D70000E94C00B789481E00E94040687EF91E006
:100D80000E94BA0D0E946A062FEF8FE791E0215072
:100D900080409040E1F700C000C0809110028111B6
:100DA0000EC00E94AA092FEF8FE791E021508040EA
:100DB0009040E1F700C000C010920B02E3CF809199
:100DC0000B02882389F080910E0290910F020E94FD
:100DD000510A0E94BC0B10920C0210921002109249
:100DE0000F0210920E02CECF80910E0290910F0250
:100DF0009C012F5F3F4F30930F0220930E020E9401
:100E00001B0AC0CFCF92DF92EF92FF920F931F93F6
:100E1000CF93DF93CDB7DEB761970FB6F894DEBFFF
:100E20000FBECDBF0E94EE0A60E080E00E94D10AB2
:100E300040E150E060E472E08E010F5F1F4FC80197
:100E40000E944A0DC8010E94510B60E081E00E949F
:100E5000D10A40E150E060E572E0C8010E944A0D0D
:100E6000C8010E94510B60E082E00E94D10A81E13A
:100E7000C82E82E0D82EF60181818F9380818F93D6
:100E80009EEFE92E91E0F92EFF92EF921F930F93C0
:100E90000E94EA0DC8010E94510B60E083E00E94AD
:100EA000D10A40E150E060E672E0C8010E944A0DBC
:100EB000C8010E94510B60E084E00E94D10AF60153
:100EC00083818F9382818F93FF92EF921F930F9371
:100ED0000E94EA0DC8010E94510B60E085E00E946B
:100EE000D10A40E150E060E772E0C8010E944A0D7B
:100EF000C8010E94510B60E086E00E94D10AF60111
:100F000085818F9384818F93FF92EF921F930F932C
:100F10000E94EA0DC8010E94510BFFEF2FEF8BE3F7
:100F2000F15020408040E1F700C000000FB6F89477
:100F3000DEBF0FBECDBF61960FB6F894DEBF0FBE09
:100F4000CDBFDF91CF911F910F91FF90EF90DF9078
:100F5000CF9008950F931F93CF93DF938C01EB01F4
:100F600087E190E00E94290CFC0111830083138229
:100F70001282148AD68BC58BDF91CF911F910F916E
:100F80000895FC012489283078F431E0320F348B45
:100F9000E20FF11DE20FF11D75836483FB01938362
:100FA000828380E090E008958FEF9FEF0895E62F11
:100FB000F0E0EE0FFF1FE15FFD4F20813181281728
:100FC000390710F49183808380E00C9402070F931B
:100FD0001F93CF93DF93CDB7DEB760970FB6F8942A
:100FE000DEBF0FBECDBF8C01862F642F0E94D10AB9
:100FF00040E150E0B801CE0101960E944A0DCE01B9
:1010000001960E94510B60960FB6F894DEBF0FBE9A
:10101000CDBFDF91CF911F910F910895809308016B
:101020000E94EE0A80911702882309F443C04AE027
:1010300062E080EF90E00E94E7074AE063E080E032
:1010400091E00E94E7072FEF8FEF9EE02150804054
:101050009040E1F700C000004AE063E080E191E0E9
:101060000E94E7072FEF8FEF9EE0215080409040D5
:10107000E1F700C000004AE063E080E291E00E94F6
:10108000E7072FEF8FEF9EE0215080409040E1F77F
:1010900000C000004AE063E080E391E00E94E707BF
:1010A00081E08093100280E00E9404060E94B10B50
:1010B0000C94EE0A40E063E080E491E00E94E707D0
:1010C00040E063E080E591E00E94E7072FEF8FE7C3
:1010D00095E2215080409040E1F700C00000089563
:1010E0008F929F92AF92BF92CF92DF92EF92FF9238
:1010F0001F93CF93DF93CDB7DEB761970FB6F89408
:10110000DEBF0FBECDBF5C014B0160E080E00E94FE
:10111000D10AD5016D917C9140E150E0CE0101965C
:101120000E944A0D0E94EE0ACE0101960E94510BC8
:1011300040E061E080EB90E00E94E707650112E08B
:10114000E12CF12CB1E08B1A9108F501848990E033
:10115000E816F90624F0812F0E94D90A1BC060E02E
:10116000812F0E94D10AD6011496ED91FC9115971A
:101170006081718140E150E0CE0101960E944A0DEC
:10118000CE0101968E149F0419F40E94690B02C0CF
:101190000E94510BBFEFEB1AFB0A1F5FE2E0CE0E7D
:1011A000D11C183091F661960FB6F894DEBF0FBED1
:1011B000CDBFDF91CF911F91FF90EF90DF90CF9047
:1011C000BF90AF909F908F9008952F923F924F9233
:1011D0005F926F927F928F929F92AF92BF92CF92C7
:1011E000DF92EF92FF920F931F93CF93DF9300D084
:1011F00000D000D0CDB7DEB760E070E080E791E0CE
:101200000E94AA079E838D8360E070E080E891E0F1
:101210000E94AA078C0160E070E080E991E00E94E2
:10122000AA077C0162E077E080EA91E00E94AA07C9
:101230003C0160E070E080EB91E00E94AA072C0185
:1012400060EA7AE080EC91E00E94AA071C0160E06D
:1012500070E080ED91E00E94AA079A83898360E0A4
:1012600070E080EE91E00E94AA079C838B836EE081
:1012700078E080EF91E00E94AA075C016EE078E0E0
:1012800080E092E00E94AA076C016EE078E080E1C5
:1012900092E00E94AA074C01B8018D819E810E94B4
:1012A000C107B501C8010E94C107B601C8010E946B
:1012B000C107B401C8010E94C107B7018D819E8199
:1012C0000E94C107B3018D819E810E94C107B201B6
:1012D0008D819E810E94C107B1018D819E810E94F6
:1012E000C10769817A81C7010E94C1076B817C8136
:1012F000C7010E94C1078D819E8190937B028093DC
:101300007A02FC01848990E090937D0280937C02B4
:1013100061E070E0CF010E94700880917A029091A4
:101320007B0226960FB6F894DEBF0FBECDBFDF91CD
:10133000CF911F910F91FF90EF90DF90CF90BF90D2
:10134000AF909F908F907F906F905F904F903F9065
:101350002F9008950E946703482F823009F446C0F9
:1013600080917A0290917B02433018F4413071F100
:1013700037C02091060130910701433019F0443005
:1013800071F02EC0215031093093070120930601DE
:10139000121613062CF1FC01248930E00EC02F5FD9
:1013A0003F4F3093070120930601FC01448950E030
:1013B000421753073CF421E030E0309307012093BB
:1013C00006010EC027303105B4F70AC0FC01828146
:1013D0009381009759F090937B0280937A0206C024
:1013E00060910601709107010E9470080E949A03A3
:1013F000882301F1809106019091070120917A02E2
:1014000030917B02FC013196EE0FFF1FE20FF31FBC
:10141000A081B1815596ED91FC915697309709F0D6
:10142000099454968C915497882321F0B0937B02B1
:10143000A0937A0208950F931F93CF93DF9300D068
:1014400000D000D0CDB7DEB7182F092F40E063E001
:1014500080EC90E00E94E70760E084E00E94D10AFF
:101460000F931F938EEF91E09F938F938E010F5FE9
:101470001F4F1F930F930E94EA0DC8010E94510B4A
:101480000F900F900F900F900F900F9026960FB621
:10149000F894DEBF0FBECDBFDF91CF911F910F91AA
:1014A0000895EF92FF920F931F93CF93DF9300D095
:1014B00000D000D0CDB7DEB78C011F938F938EEF95
:1014C00091E09F938F93CE0101967C019F938F9320
:1014D0000E94EA0D0E94EE0A40E061E080ED90E09B
:1014E0000E94E70740E062E080EE90E00E94E7079C
:1014F00060E083E00E94D10AC7010E94510B9FEF78
:101500002FEF8BE3915020408040E1F700C00000B6
:1015100060910801C8010E94D7070F900F900F90AB
:101520000F900F900F9026960FB6F894DEBF0FBE67
:10153000CDBFDF91CF911F910F91FF90EF90089554
:101540000F931F93CF930E94EE0A00E710E0C1E0D3
:1015500040E06C2FC8010E94E707005F1F4FCF5F7C
:10156000C530B1F72FEF8FEF9AE4215080409040C3
:10157000E1F700C00000CF911F910F9108958830CE
:1015800018F4805580930012089587FD09C0982FA4
:101590009F709093001282958F70805F80930012ED
:1015A0000895CF93C62F0E94BF0A8C2FCF910C9421
:1015B000C50ACF93C82F60E00E94D10AE0E0F3E1B2
:1015C0001192E03883E1F807D9F760E08C2FCF91D2
:1015D0000C94D10A60E080E00C94D10ACF93C0E073
:1015E0008C2F0E94D90ACF5FC830D1F7CF910C94CD
:1015F000EA0AE0E0F2E18EEA808381EA80838AED04
:10160000808382E1808388EC808388EA80838FE313
:10161000808385ED808380E8808381E8808380E516
:10162000808389ED808381E2808380E2808382E011
:1016300080838BED808380E380838DEA80831082BA
:1016400084EA808386EA80838FEA80830E94EE0AA0
:101650000C94EA0A28E0829FC0011124A0E0B3E1C3
:101660009451FC01EA0FFB1FE058FD4FE491ED930C
:10167000A83023E1B207A9F7089528E0829FC001AE
:101680001124A0E0B3E19451FC01EA0FFB1FE058E4
:10169000FD4FE491E095ED93A83023E1B207A1F767
:1016A0000895CF93DF932DE730E01092001321507F
:1016B0003109D9F71092001220E120930012EC01B9
:1016C0008991882319F00E942A0BFACFDF91CF91DC
:1016D0000895CF93DF932DE730E04FEF4093001351
:1016E00021503109D9F71092001220E12093001205
:1016F000EC018991882319F00E943D0BFACFDF910C
:10170000CF91089588E483BF83B7806383BF83B795
:10171000816083BF84E182BF8AE081BF089585B77D
:10172000806885BF80B7806280BF08951FBC95E048
:101730009EBD89B7806889BF20E23EEF3DBD2CBDCC
:1017400010928B0090938A00EDE7F0E08081846036
:10175000808380E49DEE9093890080938800789444
:101760000895109218021092190210921A02109203
:101770001B0285E08EBD08958EB58E7F8EBD0895C7
:1017800085E080938A0008951F920F920FB60F9202
:1017900011248F939F93AF93BF93809118029091E0
:1017A0001902A0911A02B0911B020196A11DB11D50
:1017B0008093180290931902A0931A02B0931B020F
:1017C00080E29EEF9DBD8CBDBF91AF919F918F91A7
:1017D0000F900FBE0F901F9018951F920F920FB68B
:1017E0000F9211248F939F9380910D02882331F0E3
:1017F00010920D0281E08093170202C0109217022E
:1018000080E49DEE90938900809388009F918F9152
:101810000F900FBE0F901F9018955D9BFECF8CB957
:1018200008955F9BFECF8CB108950F931F93072FF0
:10183000182F292F332700BD69B988E18AB98EE8AE
:1018400080BD61E17CE08DE09CE01F910F910C94E4
:10185000590D0F931F93CF93DF938230910510F4AE
:1018600082E090E0E0918002F091810220E030E09F
:10187000A0E0B0E0309719F14081518102811381DD
:1018800048175907C8F08417950769F4109731F085
:1018900012960C93129713961C9327C00093800204
:1018A0001093810222C02115310519F04217530708
:1018B00018F49A01BD01EF01DF01F801DBCF21151A
:1018C0003105F9F0281B390B2430310580F48A8169
:1018D0009B816115710521F0FB019383828304C014
:1018E0009093810280938002FE01329644C0FE01F3
:1018F000E20FF31F8193919322503109398328839A
:101900003AC020917E0230917F02232B41F4209136
:1019100002013091030130937F0220937E022091D7
:101920000001309101012115310541F42DB73EB779
:101930004091040150910501241B350BE0917E027A
:10194000F0917F02E217F307A0F42E1B3F0B28173C
:10195000390778F0AC014E5F5F4F2417350748F028
:101960004E0F5F1F50937F0240937E0281939193AD
:1019700002C0E0E0F0E0CF01DF91CF911F910F9125
:101980000895CF93DF93009709F481C0FC0132974B
:1019900013821282A0918002B0918102109781F48B
:1019A00020813181820F931F20917E0230917F022E
:1019B0002817390751F5F0937F02E0937E0267C044
:1019C000ED0120E030E0CE17DF0740F44A815B8173
:1019D0009E0141155105F1F0EA01F5CFD383C28391
:1019E00040815181840F951FC817D90759F4888108
:1019F0009981840F951F0296918380838A819B81B0
:101A0000938382832115310529F4F0938102E093B9
:101A100080023DC0E901FB83EA8349915991C40FDB
:101A2000D51FEC17FD0761F480819181840F951F0C
:101A30000296E90199838883828193819B838A83BB
:101A4000E0E0F0E012968D919C911397009719F0C9
:101A5000FD01DC01F7CF8D919C9111979D012E5FC7
:101A60003F4F820F931F20917E0230917F022817F3
:101A7000390769F4309729F410928102109280029C
:101A800002C013821282B0937F02A0937E02DF9184
:101A9000CF910895FB01DC014150504048F0059082
:101AA0000D920020C9F701C01D9241505040E0F74F
:101AB00008950F931F93CF93DF93009731F461152F
:101AC000710519F480E090E03AC08B01EC016EE002
:101AD00070E081E090E00E94ED0FFC01892B91F312
:101AE00080E883830115110571F01387028781E86F
:101AF00083838091820290918302892B21F4F09359
:101B00008302E09382022097C9F0D187C087838146
:101B1000826083838091840290918502892B71F485
:101B2000F0938502E093840280918602909187026F
:101B3000892B21F4F0938702E0938602CF01DF9195
:101B4000CF911F910F910895A0E0B0E0EAEAFDE087
:101B50000C94D010AE014B5F5F4FFA01619171910F
:101B6000AF0180918402909185020E940C0EE2E008
:101B70000C94EC100F931F93CF93DF93E0918402AA
:101B8000F0918502238121FF1BC08C01D0E0C0E0D1
:101B9000F80181918F016091840270918502DB01CF
:101BA0001896ED91FC911997882331F00995892BAE
:101BB00079F3DFEFCFEFECCF8AE00995892B19F0AD
:101BC0008FEF9FEF02C08D2F9C2FDF91CF911F9140
:101BD0000F910895AEE0B0E0E0EFFDE00C94CE1080
:101BE0000D891E8986E08C831A8309838FEF9FE716
:101BF0009E838D83AE01475E5F4F6F89788DCE01E6
:101C000001960E940C0EEF81F885E00FF11F108203
:101C10002E96E4E00C94EA10ABE0B0E0E2E1FEE0E6
:101C20000C94C0106C017B018A01FC0117821682A2
:101C3000838181FFCCC1CE0101963C01F6019381E5
:101C4000F70193FD859193FF81917F01882309F42A
:101C5000BAC1853239F493FD859193FF81917F015B
:101C6000853229F4B60190E00E942610E7CF912C2E
:101C7000212C312CFFE1F315D8F08B3279F038F4B8
:101C8000803279F08332A1F4232D20611DC08D3282
:101C900061F0803369F4232D216016C0832D8260AA
:101CA000382EE32DE4603E2E2AC0F32DF8601DC0CF
:101CB00037FC2DC020ED280F2A3040F08E32B9F4C9
:101CC00036FC81C1232D2064322E19C036FE06C099
:101CD0008AE0989E200D1124922E11C0EAE02E9EDB
:101CE000200D1124222EF32DF0623F2E08C08C36D9
:101CF00021F4832D8068382E02C0883641F4F70124
:101D000093FD859193FF81917F018111B3CF982F2E
:101D10009F7D9554933028F40C5F1F4F9FE3998368
:101D20000DC0833631F0833771F0833509F059C027
:101D300021C0F801808189830E5F1F4F882483941E
:101D4000912C530113C02801F2E04F0E511CF801F1
:101D5000A080B18036FE03C0692D70E002C06FEF35
:101D60007FEFC5010E941B104C018201F32DFF770C
:101D70003F2E16C0280122E0420E511CF801A0801F
:101D8000B18036FE03C0692D70E002C06FEF7FEFB7
:101D9000C5010E9409104C01F32DF0683F2E82010D
:101DA00033FC1BC0822D90E088169906B0F4B60172
:101DB00080E290E00E9426102A94F4CFF50137FCCF
:101DC000859137FE81915F01B60190E00E94261057
:101DD00021102A9421E0821A91088114910471F74C
:101DE000E8C0843611F0893641F5F80137FE07C0A6
:101DF00060817181828193810C5F1F4F08C0608177
:101E00007181072E000C880B990B0E5F1F4FF32D6D
:101E1000FF763F2E97FF09C090958095709561954C
:101E20007F4F8F4F9F4FF0683F2E2AE030E0A30195
:101E30000E946210882E861845C0853731F4232D04
:101E40002F7EB22E2AE030E025C0932D997FB92E47
:101E50008F36C1F018F4883579F0B5C0803719F0A5
:101E6000883721F0B0C0E92FE061BE2EB4FE0DC06E
:101E7000FB2DF460BF2E09C034FE0AC0292F266056
:101E8000B22E06C028E030E005C020E130E002C0FC
:101E900020E132E0F801B7FE07C0608171818281E4
:101EA00093810C5F1F4F06C06081718180E090E0DC
:101EB0000E5F1F4FA3010E946210882E8618FB2D13
:101EC000FF773F2E36FE0DC0232D2E7FA22E8914C4
:101ED00058F434FE0BC032FC09C0832D8E7EA82E30
:101EE00005C0B82CA32C03C0B82C01C0B92CA4FE8B
:101EF0000FC0FE01E80DF11D8081803321F49A2D81
:101F0000997EA92E09C0A2FE06C0B394B39404C062
:101F10008A2D867809F0B394A3FC11C0A0FE06C0F8
:101F2000B21488F4280C922C9B180EC0B21460F4E2
:101F3000B60180E290E00E942610B394F7CFB2146D
:101F400018F42B1802C0982C212CA4FE10C0B60146
:101F500080E390E00E942610A2FE17C0A1FC03C0FF
:101F600088E790E002C088E590E0B6010CC08A2DB9
:101F7000867859F0A1FE02C08BE201C080E2A7FC86
:101F80008DE2B60190E00E942610891438F4B60163
:101F900080E390E00E9426109A94F7CF8A94F30190
:101FA000E80DF11D8081B60190E00E94261081109D
:101FB000F5CF222009F442CEB60180E290E00E94E3
:101FC00026102A94F6CFF6018681978102C08FEF02
:101FD0009FEF2B96E2E10C94DC100F931F93CF93AD
:101FE000DF93869F8001879F100D969F100D11240F
:101FF000C8010E94290CEC01009729F0A80160E0BB
:1020000070E00E941410CE01DF91CF911F910F91CB
:102010000895FC010590615070400110D8F780953B
:1020200090958E0F9F1F0895DC0101C06D93415064
:102030005040E0F70895FC0161507040019001109C
:10204000D8F7809590958E0F9F1F08950F931F933B
:10205000CF93DF93FB01238121FD03C08FEF9FEF1F
:102060002CC022FF16C0468157812481358142173A
:10207000530744F4A081B1819D012F5F3F4F31830D
:1020800020838C93268137812F5F3F4F37832683B0
:1020900014C08B01EC01FB010084F185E02D099552
:1020A000892BE1F6D80116968D919C911797019690
:1020B00017969C938E931697CE01DF91CF911F9127
:1020C0000F910895FA01AA27283051F1203181F1AA
:1020D000E8946F936E7F6E5F7F4F8F4F9F4FAF4F30
:1020E000B1E03ED0B4E03CD0670F781F891F9A1F43
:1020F000A11D680F791F8A1F911DA11D6A0F711DF7
:10210000811D911DA11D20D009F468943F912AE002
:10211000269F11243019305D3193DEF6CF010895EA
:10212000462F4770405D4193B3E00FD0C9F7F6CF1B
:10213000462F4F70405D4A3318F0495D31FD4052E3
:10214000419302D0A9F7EACFB4E0A6959795879579
:1021500077956795BA95C9F7009761057105089558
:102160009B01AC010A2E0694579547953795279504
:10217000BA95C9F7620F731F841F951FA01D08959C
:102180002F923F924F925F926F927F928F929F9287
:10219000AF92BF92CF92DF92EF92FF920F931F9375
:1021A000CF93DF93CDB7DEB7CA1BDB0B0FB6F89426
:1021B000DEBF0FBECDBF09942A88398848885F8466
:1021C0006E847D848C849B84AA84B984C884DF80D7
:1021D000EE80FD800C811B81AA81B981CE0FD11DBB
:1021E0000FB6F894DEBF0FBECDBFED010895F89491
:0221F000FFCF1F
:1021F20000008802200001000143414E494E54452F
:102202003A202578200A0043414E2D4552524F5222
:102212002000455741524E2000525857415220004B
:1022220054585741522000525845502000545845A6
:102232005020005458424F20005258304F565220DE
:1022420000696E7465727275707420666C61673AAB
:10225200202564200A004D43503235313520697300
:10226200204E4F5420696E20436F6E666967757207
:102272006174696F6E206D6F64652061667465724A
:10228200207265736574212049747320636F6E66D2
:1022920069672062697473206172652025780A007B
:1022A2004D435032353135206973204E4F542069E9
:1022B2006E20636F7272656374206D6F6465206156
:1022C2006674657220726573657421204974732087
:1022D200636F6E666967206269747320617265203C
:1022E20025780A000A210073746172742000256443
:0222F2000000EA
:040000050080020C69
:00000001FF
