:100000000C94B4010C9484030C94D1010C94E4017D
:100010000C94D1010C94D1010C94D1010C94D10118
:100020000C94D1010C94D1010C94D1010C94D10108
:100030000C94D1010C94D1010C94D1010C94D409ED
:100040000C94D1010C94D1010C94D1010C94D101E8
:100050000C94D1010C94D1010C94D1010C94D101D8
:100060000C94D1010C94D1010C94D1010C94D101C8
:10007000000000000000000000065F5F06000000B6
:100080000007070007070000147F7F147F7F14001C
:10009000242E6B6B3A120000466630180C66620024
:1000A000307A4F5D377A48000407030000000000F3
:1000B000001C3E63410000000041633E1C00000044
:1000C000082A3E1C1C3E2A0808083E3E080800007C
:1000D00000A0E06000000000080808080808000010
:1000E00000006060000000006030180C0603010092
:1000F0003E7F594D7F3E000042427F7F40400000DE
:10010000627359496F660000226349497F360000D7
:10011000181C16137F7F1000276745457D390000A6
:100120003C7E4B4979300000036371190F070000D2
:10013000367F49497F360000064F49693F1E00005F
:1001400000006C6C0000000000A0EC6C00000000DF
:10015000081C366341000000141414141414000029
:10016000004163361C080000020351590F060000CD
:100170003E7F415D5D1F1E007C7E13137E7C000070
:10018000417F7F49497F36001C3E63414163220025
:10019000417F7F41637F1C00417F7F495D41630058
:1001A000417F7F491D0103001C3E63415173720072
:1001B0007F7F08087F7F000000417F7F41000000B3
:1001C000307040417F3F0100417F7F081C77630012
:1001D000417F7F41406070007F7F060C067F7F007B
:1001E0007F7F060C187F7F001C3E6341633E1C002E
:1001F000417F7F49090F06001E3F21717F5E00008D
:10020000417F7F19396F460026674D597B320000C8
:1002100003417F7F410300007F7F40407F7F0000DC
:100220001F3F60603F1F00007F7F3018307F7F00DE
:1002300063771C081C776300074F78784F0700002E
:100240006773594D47637100007F7F414100000093
:100250000103060C183060000041417F7F00000060
:10026000080C0603060C0800808080808080808057
:100270000000030704000000207454543C78400040
:10028000413F7F44447C3800387C44446C28000063
:10029000307848493F7F4000387C54545C18000057
:1002A000487E7F490302000098BCA4A4F87C0400A7
:1002B000417F7F08047C780000447D7D4000000081
:1002C00040C484FD7D000000417F7F10386C4400F5
:1002D00000417F7F400000007C7C0C180C7C780083
:1002E0007C7C04047C780000387C44447C3800002A
:1002F00084FCF8A4243C1800183C24A4F8FC8400D6
:10030000447C78441C180000485C54547424000059
:1003100000043E7F442400003C7C40403C7C400084
:100320001C3C60603C1C00003C7C6030607C3C00FD
:10033000446C3810386C44009CBCA0A0FC7C0000CD
:100340004C64745C4C64000008083E774141000036
:1003500000000077770000004141773E0808000068
:10036000020301030203010011241FBECFEFD4E0FA
:10037000DEBFCDBF12E0A0E0B1E0E4EDFDE102C0E0
:1003800005900D92AC3CB107D9F723E0ACECB2E09C
:1003900001C01D92AA34B207E1F70E94EE050C9449
:1003A000E80E0C9400000E94B00908951092001409
:1003B000B19BFECFFC010496A0E0B4E12C91219307
:1003C000E817F907D9F708951F920F920FB60F9209
:1003D00011242F933F934F935F936F937F938F934A
:1003E0009F93AF93BF93EF93FF938091CE028111C0
:1003F00009C08091CE028F5F8093CE0288E091E0A9
:100400000E94AB0BFF91EF91BF91AF919F918F91A4
:100410007F916F915F914F913F912F910F900FBE00
:100420000F901F901895CF93DF9300D000D0CDB7D9
:10043000DEB7CE0101960E94D6010F900F900F906B
:100440000F90DF91CF9108950E94D3010E94130273
:100450003098389AF89485B7826085BF85B78E7FCB
:1004600085BF8BB780628BBF78940895CF93DF935D
:1004700000D000D0CDB7DEB7CE0101960E94D601E4
:100480006B8160587C817058862F062E000C990B6A
:1004900099231CF4919581959109282F872F072E78
:1004A000000C990B99231CF4919581959109821761
:1004B00088F4213550F0161624F482E08093CD02A2
:1004C00019C081E08093CD0215C0223398F41092B8
:1004D000CD0210C0813550F0171624F483E08093CC
:1004E000CD0208C084E08093CD0204C0823310F4B2
:1004F0001092CD028091CD020F900F900F900F902F
:10050000DF91CF9108950E943602362F272F862F34
:10051000660F990B99231CF4919581959109682F89
:10052000872F770F990B99231CF491958195910949
:10053000861788F4613550F0131624F482E0809316
:10054000CC0219C081E08093CC0215C0623398F4CC
:100550001092CC0210C0813550F0121624F483E0C2
:100560008093CC0208C084E08093CC0204C0823324
:1005700010F41092CC028091CC020895CF93DF93B7
:100580001F92CDB7DEB78091CE0289831092CE0242
:1005900089810F90DF91CF9108950E94D301089532
:1005A000CF93DF9300D000D0CDB7DEB7CE01019658
:1005B0000E94D60179816A8180E090E00F900F90CF
:1005C0000F900F90DF91CF910895CF93C82FEEED4C
:1005D000F2E086E393E0118210823B96E817F90778
:1005E000D1F780E80E94B80463E08BE20E949F0488
:1005F0008BE20E948D041F928F9381E191E09F9383
:100600008F930E94950B67E88AE20E949F0461EB3A
:1006100089E20E949F0460E680E60E949F0460E6F3
:1006200080E70E949F0466E088E20E949F0440E108
:100630006FEE8FE00E94FB048C2F0E94B304F894AD
:1006400085B7826085BF85B78E7F85BF8BB7806495
:100650008BBF78940F900F900F900F90CF910895CB
:10066000CF92DF92EF92FF920F931F93CF937B0174
:10067000C82FC295C07F81E68C0F0E948D04182F71
:1006800082E68C0F0E948D0490E0212F30E0220F33
:10069000331F220F331F220F331F96958795929594
:1006A00082958F7089279F708927822B932BF70162
:1006B0009183808385E68C0F0E948D048F70F701F3
:1006C00082838823B1F0CA596701F3E0CF0ED11CB1
:1006D00000E010E08C2F0E948D04F60181936F01E1
:1006E0000F5F1F4FCF5FF701228130E00217130722
:1006F0008CF3C7010E941505CF911F910F91FF90B8
:10070000EF90DF90CF9008951F920F920FB60F9247
:1007100011242F933F934F935F936F937F938F9306
:100720009F93AF93BF93EF93FF9381E090E09093FB
:10073000D1028093D0028CE20E948D0480FF20C001
:100740006091D3028BE0689FB001112462527D4F0B
:1007500080E090E00E9430038091D2028F5F80930E
:10076000D20240E061E08CE20E94FB048091D3025F
:100770008F5F883018F48093D30202C01092D302A6
:100780008CE20E948D0481FF20C06091D3028BE037
:10079000689FB001112462527D4F81E090E00E9479
:1007A00030038091D2028F5F8093D20240E062E0FA
:1007B0008CE20E94FB048091D3028F5F883018F492
:1007C0008093D30202C01092D30260E08CE20E94B8
:1007D0009F04FF91EF91BF91AF919F918F917F9176
:1007E0006F915F914F913F912F910F900FBE0F909E
:1007F0001F901895CF93C82F8CE20E948D044C2F28
:10080000440F4C5F8423482F50E02C2F30E0220F00
:10081000331F2C5F3F4F81E090E04217530711F4E4
:1008200080E090E0CF910895EF92FF920F931F9395
:10083000CF93DF938C0109C08091CF028F5F8093AB
:10084000CF02833010F01092CF028091CF020E942D
:10085000FA03892B89F38091CF028295807FF8017A
:1008600062818B5C0E949F04F80182818823D9F009
:100870007801F3E0EF0EF11CC0E0D0E0F7016191E8
:100880007F018091CF022C2FF0E18F9F200D11244A
:10089000822F8A5C0E949F042196F801828190E059
:1008A000C817D9075CF3F801608171817695679567
:1008B00076956795769567958091CF028295807F32
:1008C0008F5C0E949F04F80160816295660F607ED4
:1008D0008091CF028295807F8E5C0E949F048091E0
:1008E000CF028F570E94F004DF91CF911F910F919B
:1008F000FF90EF900895C4980895C49A08950E94B7
:100900007B0480EC0E9496050E947D048FEF9FE29D
:100910000197F1F700C000000895CF93C82F0E94FF
:100920007B0483E00E9496058C2F0E9496050E940E
:100930009A05C82F0E947D048C2FCF910895CF93E4
:10094000DF93D82FC62F0E947B0482E00E94960579
:100950008D2F0E9496058C2F0E9496050E947D0483
:10096000DF91CF910895682F8FE00E949F04089532
:10097000CF93C82F0E948E050E947F048EE00E94B4
:100980008D04807E803871F01F928F938EE691E007
:100990009F938F930E94950B0F900F900F900F9045
:1009A00081E01CC08C2F0E94B3048EE00E948D0455
:1009B000807EC81791F01F928F9388EB91E09F93F0
:1009C0008F930E94950B8CEF91E00E94AB0B0F90E0
:1009D0000F900F900F9081E001C080E0CF910895BB
:1009E000CF93C82F0E947B048C2F0E9496050E94F3
:1009F0007D04CF9108951F93CF93DF93182FD62FA7
:100A0000C42F0E947B0485E00E949605812F0E94DE
:100A100096058D2F0E9496058C2F0E9496050E94A8
:100A20007D04DF91CF911F910895FC0120813181D8
:100A30002D34310539F120F42834310539F1089588
:100A40002035310521F023353105A9F00895838142
:100A5000A6E3B3E013968C93139784818C938581DE
:100A600011968C931197868112968C931297878199
:100A700014968C93089583818093D7028481809308
:100A8000D602089583818093D5020895838180934F
:100A9000D4020895CF93DF93CDB7DEB72B970FB66F
:100AA000F894DEBF0FBECDBF813081F028F08230D8
:100AB000B9F08330F9F029C083E590E09A83898307
:100AC00082E08B838FEF8C838D831BC083E590E066
:100AD0009A83898382E08B838FEF8C831D8211C080
:100AE00083E590E09A83898382E08B838FEF8C8308
:100AF0001D8207C08DE490E09A83898381E08B8317
:100B00008C83CE0101960E9414042B960FB6F894A4
:100B1000DEBF0FBECDBFDF91CF91089587B3806B4D
:100B200087BB8DB181658DB9C49A08958FB9779BC4
:100B3000FECF08951FB8779BFECF8FB10895B99867
:100B4000B89AC19A329A3098389A85B7826085BF30
:100B500085B78E7F85BF8BB780628BBF8A988BB736
:100B600080648BBF85B7826085BF0895DF92EF9266
:100B7000FF920F931F93CF93DF93CDB7DEB72B97E1
:100B80000FB6F894DEBF0FBECDBF0E943602E62E30
:100B9000F72ED82E0E94D002162F072F80E590E066
:100BA0009A8389830E94BE028C83DD82EE82FF825B
:100BB0000887198786E08B83CE0101960E94140472
:100BC0002B960FB6F894DEBF0FBECDBFDF91CF914D
:100BD0001F910F91FF90EF90DF9008950E949F0565
:100BE0006FE170E080E090E00E94050A0E94BD097C
:100BF0000E9424020E94CD020E9424090E94410703
:100C000080E00E94E5020E94C409789481E00E947D
:100C10004A050E94B6052FEF8FE791E021508040F2
:100C20009040E1F700C000C08091D60281110EC053
:100C30000E94C9072FEF8FE791E02150804090403C
:100C4000E1F700C000C01092D502E3CF8091D50239
:100C50008823A1F08091D8029091D9020E94A60821
:100C60000E94D0091092D6022FEF8FEF9BE3215004
:100C700080409040E1F700C00000CBCF8091D802C7
:100C80009091D9029C012F5F3F4F3093D90220935E
:100C9000D8020E946E08BDCF0E9418098091D70229
:100CA000882309F44CC06AE082E00E94F8088FEFC4
:100CB00091E00E947D096AE083E00E94F8088BE0E1
:100CC00092E00E947D092FEF8FEF9EE0215080403F
:100CD0009040E1F700C000006AE083E00E94F8085D
:100CE00080E192E00E947D092FEF8FEF9EE021507E
:100CF00080409040E1F700C000006AE083E00E947D
:100D0000F80885E192E00E947D092FEF8FEF9EE0C9
:100D1000215080409040E1F700C000006AE083E08D
:100D20000E94F8088AE192E00E947D0981E08093A8
:100D3000D60280E00E944A050E941809089560E0EA
:100D400083E00E94F80881E292E00E947D0960E061
:100D500084E00E94F80882E392E00E947D092FEF70
:100D60008FE795E2215080409040E1F700C00000FD
:100D70000895EF92FF920F931F93CF93DF937C011F
:100D80008B0186E290E00E941A0AEC0140E150E0FB
:100D9000B7010E943B0B1A8A198A1BA21DA30CA340
:100DA000CE01DF91CF911F910F91FF90EF900895A9
:100DB000DC019396EC919397E83088F421E02E0FB4
:100DC00093962C93F0E0EE0FFF1FE80FF91F748B42
:100DD000638BFB01928B818B80E090E008958FEF15
:100DE0009FEF0895AF92BF92CF92DF92EF92FF9262
:100DF0000F931F93CF936C015B0160E080E00E9432
:100E0000F808C6010E947D0960E081E00E94F808B0
:100E10008FE392E00E947D097601C2E000E010E0DD
:100E200081E0A81AB108F60183A190E0081719071C
:100E300024F08C2F0E94010912C060E08C2F0E94C8
:100E4000F808A016B10631F4F701838994890E944D
:100E5000960905C0F701838994890E947D090F5F77
:100E60001F4FCF5FF2E0EF0EF11CC830E1F6CF91DB
:100E70001F910F91FF90EF90DF90CF90BF90AF90B8
:100E800008954F925F926F927F928F929F92AF924E
:100E9000BF92CF92DF92EF92FF920F931F93CF9367
:100EA000DF9360E070E080E592E00E94B906EC011B
:100EB0006CE476E08AE592E00E94B9065C0160E0AD
:100EC00070E085E692E00E94B9068C0160E070E077
:100ED00084E792E00E94B9066C0160E070E08EE762
:100EE00092E00E94B9067C0160E070E088E892E040
:100EF0000E94B9064C0160E070E08FE892E00E9429
:100F0000B9063C0160E070E086E992E00E94B90613
:100F10002C01B501CE010E94D806B801CE010E9475
:100F2000D806B601CE010E94D806B701CE010E94B4
:100F3000D806B401CE010E94D806B301C8010E94B0
:100F4000D806B201C8010E94D806D0933D03C093D1
:100F50003C038BA190E090933F0380933E0361E0BC
:100F600070E0CE010E94F20680913C0390913D0317
:100F7000DF91CF911F910F91FF90EF90DF90CF9075
:100F8000BF90AF909F908F907F906F905F904F90A9
:100F900008950E948302823009F463C020F48130F6
:100FA00009F452C076C0833019F0843011F171C059
:100FB000809106019091070101979093070180931A
:100FC00006011816190654F0E0913C03F0913D0318
:100FD00083A190E090930701809306016091060140
:100FE0007091070180913C0390913D030E94F206AD
:100FF0005AC020910601309107012F5F3F4F309377
:1010000007012093060180913C0390913D03FC0170
:1010100043A150E0421753073CF421E030E0309305
:1010200007012093060109C02730310534F021E083
:1010300030E0309307012093060160910601709122
:1010400007010E94F2062FC0E0913C03F0913D039E
:1010500081899289009739F190933D0380933C03F5
:1010600022C080913C0390913D03E0910601F091F4
:1010700007013197EE0FFF1FE80FF91F0388F4896E
:10108000E02D83A1882379F0F0933D03E0933C03A6
:101090000AC0609106017091070180913C03909114
:1010A0003D030E94F2060E94BE028823B1F08091A7
:1010B0003C0390913D03E0910601F09107013197C7
:1010C000EE0FFF1FE80FF91F0388F489E02D04A03D
:1010D000F5A1E02D309709F0099508950F931F931E
:1010E000CF93DF9300D000D000D0CDB7DEB7182F5C
:1010F000092F60E083E00E94F80880EA92E00E94F5
:101100007D0960E084E00E94F8080F931F938EEA47
:1011100092E09F938F938E010F5F1F4F1F930F934A
:101120000E94DB0BC8010E947D090F900F900F9069
:101130000F900F900F9026960FB6F894DEBF0FBE5B
:10114000CDBFDF91CF911F910F9108950F931F9302
:10115000CF93DF9300D000D000D0CDB7DEB79F9300
:101160008F938EEA92E09F938F938E010F5F1F4FB4
:101170001F930F930E94DB0B0E94180960E081E02F
:101180000E94F80881EB92E00E947D0960E082E015
:101190000E94F8088CEB92E00E947D0960E083E0F9
:1011A0000E94F808C8010E947D090F900F900F90CF
:1011B0000F900F900F9026960FB6F894DEBF0FBEDB
:1011C000CDBFDF91CF911F910F910895883018F412
:1011D000805580930012089588234CF0982F9F70BB
:1011E000E0E0F2E1908382958F70805F80830895C4
:1011F000CF93C62F0E94E6088C2F0E94EC08CF9157
:101200000895CF93C82F60E00E94F808E0E0F3E172
:101210001192E03883E1F807D9F760E08C2F0E9443
:10122000F808CF91089560E080E00E94F8080895E2
:10123000CF93C0E08C2F0E940109CF5FC830D1F757
:101240000E941309CF910895E0E0F2E18EEA8083D5
:1012500081EA80838AED808382E1808388EC8083C9
:1012600088EA80838FE3808385ED808380E88083B4
:1012700081E8808380E5808389ED808381E28083BB
:1012800080E2808382E080838BED808380E38083B3
:101290008DEA8083108284EA808386EA80838FEAE5
:1012A00080830E9418090E941309089528E0829FF4
:1012B000C0011124A0E0B3E19451FC01EA0FFB1F2F
:1012C000E059FF4FE491ED93A83023E1B207A9F76D
:1012D000089528E0829FC0011124A0E0B3E1945159
:1012E000FC01EA0FFB1FE059FF4FE491E095ED93FD
:1012F000A83023E1B207A1F70895CF93DF93EC0163
:101300008DE790E0E0E0F3E110820197E9F780E0FB
:101310000E94EC088881882331F021960E945609AA
:1013200089918111FBCFDF91CF910895CF93DF9306
:10133000EC018DE790E0E0E0F3E12FEF20830197EF
:10134000E9F780E00E94EC088881882331F021963B
:101350000E94690989918111FBCFDF91CF91089596
:1013600088E483BF83B7806383BF83B7816083BF13
:1013700084E182BF8AE081BF089585B7806885BF18
:1013800080B7806280BF08951FBC85E08EBD89B79D
:10139000806889BF80E29EEF9DBD8CBD78940895E2
:1013A0008EB58E7F8EBD08951F920F920FB60F924D
:1013B00011248F939F93AF93BF938091DA02909102
:1013C000DB02A091DC02B091DD020196A11DB11DEE
:1013D0008093DA029093DB02A093DC02B093DD02EB
:1013E00080E29EEF9DBD8CBDBF91AF919F918F918B
:1013F0000F900FBE0F901F9018955D9BFECF8CB97C
:1014000008955F9BFECF8CB108950F931F93072F14
:10141000182F292F332700BD69B988E18AB98EE8D2
:1014200080BD61E07AE08DEF99E00E944A0B1F9148
:101430000F9108950F931F93CF93DF9382309105FF
:1014400010F482E090E0E0914203F091430320E049
:1014500030E0A0E0B0E0309719F140815181028185
:10146000138148175907C8F08417950769F4109736
:1014700031F012960C93129713961C9327C0009389
:1014800042031093430322C02115310519F042177E
:10149000530718F49A01BD01EF01DF01F801DBCF1A
:1014A00021153105F9F0281B390B2430310580F462
:1014B0008A819B816115710521F0FB0193838283F1
:1014C00004C09093430380934203FE01329644C0CC
:1014D000FE01E20FF31F819391932250310939836A
:1014E00028833AC02091400330914103232B41F4DB
:1014F0002091020130910301309341032093400376
:1015000020910001309101012115310541F42DB7E1
:101510003EB74091040150910501241B350BE09129
:101520004003F0914103E217F307A0F42E1B3F0B99
:101530002817390778F0AC014E5F5F4F2417350745
:1015400048F04E0F5F1F5093410340934003819337
:10155000919302C0E0E0F0E0CF01DF91CF911F91C5
:101560000F910895CF93DF93009709F481C0FC0198
:10157000329713821282A0914203B09143031097D5
:1015800081F420813181820F931F2091400330919B
:1015900041032817390751F5F0934103E0934003C5
:1015A00067C0ED0120E030E0CE17DF0740F44A814C
:1015B0005B819E0141155105F1F0EA01F5CFD3831E
:1015C000C28340815181840F951FC817D90759F4F0
:1015D00088819981840F951F0296918380838A81E7
:1015E0009B81938382832115310529F4F093430372
:1015F000E09342033DC0E901FB83EA83499159919D
:10160000C40FD51FEC17FD0761F480819181840F11
:10161000951F0296E90199838883828193819B8338
:101620008A83E0E0F0E012968D919C9113970097E9
:1016300019F0FD01DC01F7CF8D919C9111979D016F
:101640002E5F3F4F820F931F209140033091410343
:101650002817390769F4309729F410924303109240
:10166000420302C013821282B0934103A09340034D
:10167000DF91CF910895FB01DC014150504048F0CB
:1016800001900D920020C9F701C01D9241505040B9
:10169000E0F708950F931F93CF93DF93009731F4F2
:1016A0006115710519F480E090E03AC08B01EC01FE
:1016B0006EE070E081E090E00E94DE0DFC01892B7D
:1016C00091F380E883830115110571F01387028778
:1016D00081E883838091440390914503892B21F411
:1016E000F0934503E09344032097C9F0D187C08766
:1016F0008381826083838091460390914703892B85
:1017000071F4F0934703E09346038091480390916E
:101710004903892B21F4F0934903E0934803CF0157
:10172000DF91CF911F910F910895A0E0B0E0EBE918
:10173000FBE00C94C10EAE014B5F5F4FFA0161916B
:101740007191AF0180914603909147030E94FD0B78
:10175000E2E00C94DD0E0F931F93CF93DF93E091A3
:101760004603F0914703238121FF1BC08C01D0E089
:10177000C0E0F80181918F016091460370914703A9
:10178000DB011896ED91FC911997882331F00995AA
:10179000892B79F3DFEFCFEFECCF8AE00995892B26
:1017A00019F08FEF9FEF02C08D2F9C2FDF91CF910B
:1017B0001F910F910895AEE0B0E0E1EEFBE00C94D4
:1017C000BF0E0D891E8986E08C831A8309838FEFF3
:1017D0009FE79E838D83AE01475E5F4F6F89788D53
:1017E000CE0101960E94FD0BEF81F885E00FF11FFD
:1017F00010822E96E4E00C94DB0EABE0B0E0E3E068
:10180000FCE00C94B10E6C017B018A01FC01178293
:101810001682838181FFCCC1CE0101963C01F60185
:101820009381F70193FD859193FF81917F01882337
:1018300009F4BAC1853239F493FD859193FF819102
:101840007F01853229F4B60190E00E94170EE7CFA0
:10185000912C212C312CFFE1F315D8F08B3279F04B
:1018600038F4803279F08332A1F4232D20611DC039
:101870008D3261F0803369F4232D216016C0832DF1
:101880008260382EE32DE4603E2E2AC0F32DF860EE
:101890001DC037FC2DC020ED280F2A3040F08E32BD
:1018A000B9F436FC81C1232D2064322E19C036FED6
:1018B00006C08AE0989E200D1124922E11C0EAE005
:1018C0002E9E200D1124222EF32DF0623F2E08C0F3
:1018D0008C3621F4832D8068382E02C0883641F47E
:1018E000F70193FD859193FF81917F018111B3CF22
:1018F000982F9F7D9554933028F40C5F1F4F9FE3E2
:1019000099830DC0833631F0833771F0833509F048
:1019100059C021C0F801808189830E5F1F4F882440
:101920008394912C530113C02801F2E04F0E511CF7
:10193000F801A080B18036FE03C0692D70E002C0BE
:101940006FEF7FEFC5010E940C0E4C018201F32D59
:10195000FF773F2E16C0280122E0420E511CF801ED
:10196000A080B18036FE03C0692D70E002C06FEF29
:101970007FEFC5010E94FA0D4C01F32DF0683F2E58
:10198000820133FC1BC0822D90E088169906B0F4CA
:10199000B60180E290E00E94170E2A94F4CFF50180
:1019A00037FC859137FE81915F01B60190E00E947E
:1019B000170E21102A9421E0821A910881149104B3
:1019C00071F7E8C0843611F0893641F5F80137FE29
:1019D00007C060817181828193810C5F1F4F08C0B5
:1019E00060817181072E000C880B990B0E5F1F4FD1
:1019F000F32DFF763F2E97FF09C090958095709547
:101A000061957F4F8F4F9F4FF0683F2E2AE030E067
:101A1000A3010E94530E882E861845C0853731F4E5
:101A2000232D2F7EB22E2AE030E025C0932D997F02
:101A3000B92E8F36C1F018F4883579F0B5C08037EB
:101A400019F0883721F0B0C0E92FE061BE2EB4FE56
:101A50000DC0FB2DF460BF2E09C034FE0AC0292F33
:101A60002660B22E06C028E030E005C020E130E05C
:101A700002C020E132E0F801B7FE07C06081718149
:101A8000828193810C5F1F4F06C06081718180E06D
:101A900090E00E5F1F4FA3010E94530E882E861800
:101AA000FB2DFF773F2E36FE0DC0232D2E7FA22E5D
:101AB000891458F434FE0BC032FC09C0832D8E7E8D
:101AC000A82E05C0B82CA32C03C0B82C01C0B92C7B
:101AD000A4FE0FC0FE01E80DF11D8081803321F4CA
:101AE0009A2D997EA92E09C0A2FE06C0B394B39484
:101AF00004C08A2D867809F0B394A3FC11C0A0FE1F
:101B000006C0B21488F4280C922C9B180EC0B21494
:101B100060F4B60180E290E00E94170EB394F7CF14
:101B2000B21418F42B1802C0982C212CA4FE10C05B
:101B3000B60180E390E00E94170EA2FE17C0A1FC40
:101B400003C088E790E002C088E590E0B6010CC0D1
:101B50008A2D867859F0A1FE02C08BE201C080E296
:101B6000A7FC8DE2B60190E00E94170E891438F4AC
:101B7000B60180E390E00E94170E9A94F7CF8A9402
:101B8000F301E80DF11D8081B60190E00E94170E6F
:101B90008110F5CF222009F442CEB60180E290E018
:101BA0000E94170E2A94F6CFF6018681978102C013
:101BB0008FEF9FEF2B96E2E10C94CD0E0F931F93C6
:101BC000CF93DF93869F8001879F100D969F100D06
:101BD0001124C8010E941A0AEC01009729F0A801FB
:101BE00060E070E00E94050ECE01DF91CF911F9161
:101BF0000F910895FC010590615070400110D8F7D5
:101C0000809590958E0F9F1F0895DC0101C06D9304
:101C100041505040E0F70895FC0161507040019040
:101C20000110D8F7809590958E0F9F1F08950F9300
:101C30001F93CF93DF93FB01238121FD03C08FEF1F
:101C40009FEF2CC022FF16C0468157812481358129
:101C50004217530744F4A081B1819D012F5F3F4F8C
:101C6000318320838C93268137812F5F3F4F3783C9
:101C7000268314C08B01EC01FB010084F185E02D6B
:101C80000995892BE1F6D80116968D919C911797AD
:101C9000019617969C938E931697CE01DF91CF9164
:101CA0001F910F910895FA01AA27283051F1203190
:101CB00081F1E8946F936E7F6E5F7F4F8F4F9F4FE0
:101CC000AF4FB1E03ED0B4E03CD0670F781F891F22
:101CD0009A1FA11D680F791F8A1F911DA11D6A0FF0
:101CE000711D811D911DA11D20D009F468943F91A3
:101CF0002AE0269F11243019305D3193DEF6CF01A2
:101D00000895462F4770405D4193B3E00FD0C9F767
:101D1000F6CF462F4F70405D4A3318F0495D31FDD4
:101D20004052419302D0A9F7EACFB4E0A695979527
:101D3000879577956795BA95C9F7009761057105FD
:101D400008959B01AC010A2E069457954795379547
:101D50002795BA95C9F7620F731F841F951FA01DA1
:101D600008952F923F924F925F926F927F928F923F
:101D70009F92AF92BF92CF92DF92EF92FF920F931A
:101D80001F93CF93DF93CDB7DEB7CA1BDB0B0FB624
:101D9000F894DEBF0FBECDBF09942A8839884888E1
:101DA0005F846E847D848C849B84AA84B984C88477
:101DB000DF80EE80FD800C811B81AA81B981CE0F6E
:101DC000D11D0FB6F894DEBF0FBECDBFED01089553
:041DD000F894FFCFB5
:101DD40000004A032000010054726967676572209D
:101DE4000043414E494E54453A202578200A004389
:101DF400414E2D4552524F522000455741524E20DC
:101E04000052585741522000545857415220005212
:101E140058455020005458455020005458424F20F3
:101E2400005258304F56522000696E7465727275B4
:101E3400707420666C61673A202564200A004D4363
:101E44005032353135206973204E4F5420696E204D
:101E5400436F6E66696775726174696F6E206D6F2A
:101E640064652061667465722072657365742120EF
:101E740049747320636F6E666967206269747320A6
:101E84006172652025780A004D4350323531352082
:101E94006973204E4F5420696E20636F72726563BC
:101EA40074206D6F64652061667465722072657359
:101EB4006574212049747320636F6E6669672062BC
:101EC400697473206172652025780A000A21005321
:101ED40074617274696E6720696E00332E2E2E0051
:101EE400322E2E2E00312E2E2E00535441525421C8
:101EF400004E4F44452032206E6F74207265616439
:101F0400790045786974696E672067616D65002D95
:101F14002D2D2D2D2D2D2D2D2D2D2D2D2D2D2D001A
:101F24004D41494E204D454E550053746172742005
:101F340067616D65005365742064696666696375DD
:101F44006C7479004869676873636F7265004361F4
:101F54006C696272617465004372656469740054EB
:101F64006F646C6572004C75646963726F7573009D
:101F740043757272656E742073636F7265002564B5
:101F84000047414D45204F5645522100596F757207
:0C1F94002073636F7265207761733A0060
:04000005008002D69F
:00000001FF
