:0200000280007C
:1000000060090020ED0A0800E90A0800E90A080072
:10001000E90A0800E90A0800E90A080000000000EF
:10002000000000000000000000000000E90A0800D5
:10003000E90A080000000000E90A0800E90A0800CF
:10004000E90A0800E90A0800E90A0800E90A0800C4
:10005000E90A0800E90A0800E90A0800E90A0800B4
:1000600071140800E90A080000000000E90A08000D
:10007000E90A0800E90A0800E90A0800000000008F
:1000800000000000E90A0800E90A0800E90A08007F
:10009000E90A0800E90A0800E90A0800E90A080074
:1000A000E90A080000000000E90A0800BD0908008C
:1000B000E90A0800E90A0800C50A0800E90A080078
:1000C000E90A08004D060800E90A0800E90A0800E4
:1000D000E90A0800E90A0800E90A0800E90A080034
:1000E000E90A0800E90A0800E90A08002D040800E6
:1000F000E90A080010B5054C237833B9044B13B155
:100100000448AFF300800123237010BD34040020A5
:1001100000000000502408000C4B43B10C4810B5FF
:100120000C49AFF300800C48036823B910BD0A489E
:10013000036833B97047094B002BF7D0BDE8104076
:100140001847064B002BF5D0184700BF00000000F1
:10015000502408003804002050240800000000004B
:10016000074AD2F8003143F02003C2F80031054BB2
:100170004FF428625A60186102221A60704700BF6B
:1001800000060E4000000C40014B186D80B2704715
:1001900000000C40064AD2F8003143F04003C2F898
:1001A0000031044B02221A614FF480325A607047CA
:1001B00000060E4000800C40014B1862704700BFE3
:1001C00000800C4008B500230948194603EB4302A0
:1001D00020F822100133082BF8D10648064B984727
:1001E0000648074B98470220064B984708BD00BFBA
:1001F00070040020662153000D030800B0710B004D
:10020000E91208006113080008B50021014B984766
:1002100008BD00BF1D030800082998BF082A6AD836
:100220002DE9F0430E465318082B61DC334C23684C
:1002300023F0010323602369314B4FF440755D6463
:100240001D6F25F003051D6703255D605D66A3F541
:1002500000632C4DC3F80C51D3F8005145F40065F0
:10026000C3F8005160618A4240DB01320846002534
:10027000A946A0464FF0005C4FF0807E0127430165
:1002800003F1402404F53024C4F804924344C3F835
:1002900008C2C4F800E2D3F81C4244F40004C3F8D6
:1002A0001C4207FA00F31D4301308242E7D181B1BD
:1002B000002312494FF000544FF0407001EB4312FD
:1002C000C2F8084203F110025201885001339E42E5
:1002D000F4D10A4B5D604FF400610B4A51601A681B
:1002E00042F001021A600020BDE8F0830025DEE73D
:1002F0000120BDE8F0830120704700BF00400B40A3
:10030000000E0E402B10001000E100E008B50222A4
:100310000121014B984708BD190208004B0103F168
:10032000402303F53023D3F8103213F4000F36D0F6
:1003300003881C4A02EA834242F000524B0103F157
:10034000402303F53023C3F808228378072B84BFAA
:1003500007238370827943791B0443EA0263C278DE
:100360001343027943EA0223490101F1402101F5D7
:100370003021C1F81432827A437A1B0443EA0263C3
:10038000C2791343027A43EA0223C1F81832837810
:100390001B0443F40003C1F81C3200207047012005
:1003A000704700BF0000FC1F4B0103F1402303F521
:1003B0003023D3F8103213F4000F33D030B44B0194
:1003C00003F1402303F53023D3F81422D3F8184265
:1003D000D3F80852C5F38A450580D3F81032C3F329
:1003E000034383701D465BB103300023032BD9BF49
:1003F0000270120A0470240A01330130AB42F5D1B5
:10040000094B01F1100252014FF08070985003EB3C
:100410004111D1F81C3243F40003C1F81C32002012
:1004200030BC70470120704700400B4070B52C4B2A
:100430001C6914F0060F05D014F0020F0ED114F051
:10044000040F2CD114F0010F02D00122244B9A602A
:100450004FF40062234BC3F8842170BD224D2878ED
:1004600000EB4000214E012106EB8000204B984715
:10047000287800EB400006EB80001E4B98471E4A90
:1004800013780133DBB213702B780133DBB2072B07
:1004900001D82B70D6E70022134B1A70D2E7124D09
:1004A000287800EB4000114E022106EB8000104B33
:1004B0009847287800EB400006EB80000D4B9847EA
:1004C0000D4A13780133DBB213702B780133DBB2A2
:1004D000072B01D82B70B5E70022034B1A70B1E748
:1004E00000400B4000E100E05804002070040020B0
:1004F000A9030800FD0408005004002038B5044694
:100500000388353B1E2B3CD8DFE803F02D343B3B02
:100510003B3B3B3B3B3B3B3B3B3B3B3B3B3B3B293D
:100520003B3B3B3B253B3B103B3B1E00C278154B06
:10053000DA7002791A7090F905205A7090F9062045
:100540009A70C2791A7138BDC2780F4B1A7002794D
:100550000E4B1A7038BDC2780D4B1A7038BDC27878
:100560000C4B1A7038BD0C480C4DA847E11C0C48C8
:10057000A84738BD0B48094DA84794F903100A480D
:10058000A84738BDD0040020D9040020D80400209A
:10059000D7040020D604002024230800F11008000E
:1005A00034230800402308005023080000B585B01C
:1005B000032814D8DFE800F0021623335323ADF8E4
:1005C000043002238DF80630FF238DF807308DF8B4
:1005D00008301948194B984701A8194B984705B09E
:1005E0005DF804FB5323ADF8043002238DF8063088
:1005F000FF238DF8073000238DF80830ECE75323F4
:10060000ADF8043002238DF80630FF238DF8073053
:1006100000238DF808300B48084B9847DCE74D2342
:10062000ADF8043001238DF806308DF80730064808
:10063000024B9847D0E700BF64230800F110080080
:1006400009020800742308008423080008B5034B3E
:100650001B680120024B984708BD00BF208008405E
:10066000AD05080028B9064A536B43F40073536381
:100670007047034A136B43F400731363704700BF62
:1006800000140E40024A536B43F00103536370475A
:1006900000140E4038B5074C636B43F002036363EC
:1006A0001420054DA847236B43F002032363142055
:1006B000A84738BD00140E40D50D080008B5144AEF
:1006C000136943F4C0431361124B1A6842F4FF727A
:1006D0001A605A6942F4FF725A6103F5007319688F
:1006E00040F20760014319601A6902431A615A6BAC
:1006F00042F400725A631A6B42F003021A6301203B
:10070000054B9847054B98470020054B984708BD77
:1007100000060E4000120E408506080095060800EF
:10072000B9010800012802D0022806D07047064A05
:10073000536B43F4806353637047034A136B43F472
:1007400080631363704700BF00140E4008B5014B6F
:10075000984708BDB9010800F8B5124C236B43F067
:1007600002032363636B43F001036363636B43F032
:10077000040363631E200C4FB8470C4DEE6B236BD4
:1007800043F0040323631E20B847EB6BC3F3470316
:10079000F50105F47F451D4301232363044B98476E
:1007A00028B2F8BD00140E40A10D080000120E4042
:1007B00095060800F8B50220104FB84740F2DC500B
:1007C0000F4DA84701200F4EB0474FF47A700E4CE2
:1007D000A0470E4B98470120B8474FF47A70A047C6
:1007E0000B4B9847044601460A480B4B984700209C
:1007F000B0470020A8472046F8BD00BF25070800E5
:10080000B9010800650608001D0E080095060800DD
:100810005907080094230800F110080008B5094B97
:100820004FF07E521A604FF07C525A6000229A605C
:100830000022DA60044919615A614CF25030034BCE
:10084000984708BDDC040020CDCC4C3DE9110800E0
:1008500008B5054B98470120044B9847044B98472F
:10086000044B188008BD00BFBD06080065060800DF
:10087000B50708005C04002008B50020024B98472B
:100880000020024B984708BD65060800A913080020
:1008900008B50120024B98470020024B984708BD3D
:1008A000650608006113080008B5044B9847044A20
:1008B0005388184400B2508008BD00BF5907080093
:1008C0005C040020F8B5304B9847304B1C79C0EBE6
:1008D00000202F4AB2F9002090FBF2F0044424B229
:1008E00019792C482C4B9847002C40DD2B4DA868DB
:1008F00000FB04F02A4B984729692A4B98472A4B5A
:100900009847A860264E2046B0470546234CA0686D
:10091000B047244E6168B047074621682846B04773
:1009200001463846214B98471F4B984700B26561F6
:1009300080EAE074A4EBE074042C1CDD0028B4BF52
:10094000012002201A4B984704EB8400400000F578
:100950007A7080B2174B98470120174B98470C4B81
:100960005B68042B0BDC0133094A5360F8BD00229D
:100970000A4B9A60C6E700200F4B9847EFE700222A
:10098000034B5A60F8BD00BFA9080800D00400203E
:100990005C040020D4230800F1100800DC040020CF
:1009A000211E0800C91E080069210800B91C0800A2
:1009B000250708004D0708006506080008B5024B2A
:1009C0001B68024B984708BD20000840C508080076
:1009D00008B51420054B984705494B785BB2054A8A
:1009E00013708B785BB2537008BD00BF1D0E0800FA
:1009F000D00400206404002008B5024B9847024B45
:100A0000984708BD15110800D1090800404240B2BE
:100A10006428A8BF64206FF063039842B8BF1846EB
:100A200000EB4000400000F2DC5080B27047000054
:100A300008B50C4A13785BB2527852B2A0EB43006F
:100A40006428A8BF6420A1EB42016FF063039842C1
:100A5000B8BF184649B240B2034B98470621034B32
:100A6000984708BD640400200D0A0800AD11080075
:100A700008B50A4B1A6842F080621A601A6942F09F
:100A800080621A615A6B42F080625A631A6E42F0B9
:100A900080621A660248034B984708BD00100E405A
:100AA000A08601006912080008B5044A136B43F0E0
:100AB000806313630120024B984708BD00100E406D
:100AC0006113080008B5054B1B68054A536B43F0DA
:100AD000806353630120034B984708BD20400840C2
:100AE00000100E40A9130800FEE7000008B5184BDF
:100AF000184A9A4210D0184B154A9A420CD2013B20
:100B00009B1A23F0030304331344124951F8040BD6
:100B100042F8040B9A42F9D1104B114A9A420AD278
:100B2000013B9B1A23F0030304331344002142F8D2
:100B3000041B9342FBD10B4B23F0604323F07F0354
:100B4000094A9360094B9847094B9847FEE700BF55
:100B50000000002050240800340400205C05002020
:100B6000340400200000080000ED00E0B52108007A
:100B7000C90C08004FF48063204A136002F500722C
:100B800013601F4B1B6A13F0807F07D11D4A1C4B5B
:100B90001A621A46936E13F0010FFBD01A4A184BD3
:100BA0001A621A46936E13F4803FFBD0144A136BFB
:100BB00023F0030343F001031363936E13F0080F54
:100BC000FBD0124A0E4B9A621A46936E13F0020F34
:100BD000FBD011220A4B1A631A46936E13F0080FCA
:100BE000FBD01222064B1A631A46936E13F0080FBD
:100BF000FBD0074A074B1A60704700BF000A0E403F
:100C000000060E400908370009083701013F0D2092
:100C100000BD01050000002008B501200B4B9847DE
:100C2000F72810DC0A4B5B68312B04DC0133084ADF
:100C30005360002008BD0022054B5A600548064B52
:100C40009847012008BD002008BD00BF89010800A9
:100C500068040020DC230800F110080010B5002013
:100C60000F4B984701200F4CA0470F4B984701208E
:100C7000A0470E4B98470120A04701200C4B9847F6
:100C80000120A0470B4B98470120A0470A4B9847EB
:100C90000A4B98470A4B984701200A4B984710BDCA
:100CA000C50108001D0E0800BD060800710A0800F5
:100CB0006101080095010800F90908001D080800F5
:100CC00051080800AD05080080B582B0244B984754
:100CD000244B9847244B1B69244B4FF4C0121A60D5
:100CE0001A611A634FF4004203F545635A60204BC2
:100CF00098472048204B9847002301931F4D204FD1
:100D0000204E12E0204B98470123019313E01F4B24
:100D100098470022E27018E0B847002301934FF48F
:100D2000FA70B04701201A4B98472B78002BF3D06C
:100D3000019B002BE6D0174C6078A17849B240B2F5
:100D4000154B9847E378002BE1D1144B98470028C6
:100D5000EBD000232B7003200D4B9847E5E700BF35
:100D6000750B0800E513080000060E40000E0E404B
:100D70005D0C0800F0230800F1100800D8040020E2
:100D8000790808001D0E080091080800A90A08004B
:100D9000AD050800D0040020310A0800190C080035
:100DA0000A4B984228BF1846542303FB00F0084B17
:100DB000586005221A601A46136813F4803FFBD06E
:100DC000034A136823F0010313607047300C0300DB
:100DD00010E000E070B59F280AD9D8B1054600247C
:100DE00001263046FFF7F6FF0134AC42F9D170BD61
:100DF00042F6041505FB00F0074B586001221A600B
:100E00001A46136813F4803FFBD0034A136823F09B
:100E10000103136070BD00BF10E000E008B5014B96
:100E2000984708BDD50D08002DE9F8430D46161E5C
:100E300048DD0A78002A35D00A460024013412F829
:100E4000011F0029FAD1A6422DDC002403F0020282
:100E5000002A0CBF4FF020084FF0300813F00103B8
:100E600023D1002C28DD26465FFA88F9184F484622
:100E7000B847013EFBD1287888B1154FB8470134F7
:100E800015F8010F0028F9D1002E08DD35465FFA6C
:100E900088F80F4F4046B847013DFBD13444204607
:100EA000BDE8F8830024341BD0E72646287808B133
:100EB0000024E2E70024E7E726461C46DBE74FF084
:100EC0002008D8E713F00104F9D04FF02008EDE72F
:100ED0004D140800F0B585B0074681B30C460BB140
:100EE0000A2A38D000238DF80F300026002946D07A
:100EF0000DF10F050C993A39B4FBF2F302FB1343E1
:100F0000092BC8BF5B18303305F8013DB4FBF2F480
:100F1000002CF1D156B10A9B1BB10B9B13F0020FB1
:100F200025D12D2305F8013C013D00260B9B0A9A93
:100F300029463846144CA047304405B0F0BD302354
:100F40008DF8043000238DF805300B9B0A9A01A917
:100F50000D4CA047F1E70029C4DA4C4200238DF87C
:100F60000F300DF10F05002CD5D00126C0E72D2044
:100F7000064B98470A9B013B0A930126D6E71E467B
:100F80000DF10F05D2E700BF290E08004D1408002F
:100F90002DE9F04F87B080460B78002B00F094804D
:100FA0008B46174600254E4EDFF83CA1DFF83C91FA
:100FB00046E0002270E0396804374A48002908BF3B
:100FC00001464046D047054435E039680437612082
:100FD00002900193009201230A224046C84705442B
:100FE00029E03968043761200290019300920023C0
:100FF00010224046C84705441DE0396804374120A7
:10100000029001930092002310224046C8470544F5
:1010100011E03968043761200290019300920023A7
:101020000A224046C847054405E0A3469BF8000055
:10103000B04701355C4604F1010B6378002B44D0C6
:10104000252BF3D10BF101049BF80130002B3CD090
:10105000252BEAD02D2B06BF0BF102040123002320
:101060002278302A05D143F0020314F8012F302AE8
:10107000F9D02178A1F13002D2B2092A99D8002200
:1010800002EB8202303901EB420214F8011FA1F198
:101090003000C0B20928F3D973298CD0642994D0C8
:1010A00078299ED05829A8D07529B2D06329C2D1F9
:1010B000396804378DF8141000218DF8151005A932
:1010C0004046D0470544B6E70025B8F1000F03D0ED
:1010D000D8F8003000221A70284607B0BDE8F08F1B
:1010E0004D14080000240800290E0800D50E080041
:1010F0000FB400B583B004AA52F8041B019200207B
:10110000034B984703B05DF804EB04B0704700BF91
:10111000910F080010B41D4B5A6842F400225A6027
:101120001A6F42F400221A675A6842F480225A6009
:101130001A6F42F480221A67154B164AC3F8E4204E
:101140001C221A601449D1F8002142F01002C1F8A3
:10115000002140F20B20114A10604EF660210C3243
:10116000116041F294120E4C22601C3420600D4834
:1011700001600D490A605A6842F020025A605A68BC
:1011800042F040025A6010BC704700BF00120E408F
:1011900000400940344D575000060E40A04209401F
:1011A000A4420940CC420940C442094040F63403FD
:1011B000984228BF1846B0F5617F38BF4FF4617080
:1011C000052902D0062905D0704700EB4000044BEA
:1011D0001860704700EB4000024B1860F4E700BF56
:1011E000A4420940C442094010B54FF00062164BBA
:1011F0001A60164A136843F000631360144B1A68B0
:1012000042F001021A601A6842F480421A60114AE0
:10121000136843F010031360243A136843F001038A
:1012200013600D4B984706A3D3E900230B4CA0474E
:101230000B4B98470B4B186010BD00BFAFF30080FD
:1012400052B81E85EB51B83F00E100E010060E4099
:1012500004000840240008405D1708009D1A08009B
:101260006D1C08001C00084010B54FF08042164B62
:101270001A6002F5602202F5C262136843F08043EF
:101280001360124B1A6842F001021A601A6842F4A5
:1012900080421A600E4A136843F010031360243A28
:1012A000136843F0010313600A4B984704A3D3E982
:1012B0000023094CA047094B9847094B186010BD03
:1012C00052B81E85EB51B83F00E100E004400840F1
:1012D000244008405D1708009D1A08006D1C080096
:1012E0001C4008400000000010B50222144B5A6058
:1012F000144A136843F002031360134B1A6842F058
:1013000001021A601A6842F480421A600F4A136898
:1013100043F010031360243A136843F00103136091
:101320000B4B984704A3D3E900230A4CA0470A4B70
:1013300098470A4B186010BD52B81E85EB51B83F54
:1013400000E100E000070E400480084024800840CF
:101350005D1708009D1A08006D1C08001C800840DD
:1013600001280BD0022811D000B170470B4B01228D
:101370001A601A6842F004021A607047084B012292
:101380001A601A6842F004021A607047054B012285
:101390001A601A6842F004021A60E6E7000008408A
:1013A0000040084000800840012809D002280DD0E4
:1013B00000B17047084A136843F002031360704796
:1013C000064A136843F0020313607047044A136827
:1013D00043F002031360ECE70000084000400840BF
:1013E00000800840164B00221A705A70154B4FF4BB
:1013F0004071596459601A6F186F024022F44072AC
:101400001A6759664FF48072A3F500631A6103F5F9
:101410000073AC21196040F2232119624FF400617E
:10142000596040F20221C3F820114FF0FF31D9601A
:10143000E121996004490A6050221A60704700BF98
:10144000F4040020000E0E4000E100E0074B5B6951
:1014500013F0020F08D0054BD8611A46536913F4F4
:10146000007FFBD0002070470120704700080E402D
:1014700008B5154B5B6913F0E00F03D04FF4A8716A
:10148000114A116013F0010F12D010484278531C1A
:10149000594203F03F0301F03F0158BF4B4201782E
:1014A0008B4206D00849886908490A4490704B70FD
:1014B00008BD0748074B9847034B9A69034B597877
:1014C0000B449A7008BD00BF00080E40F4040020D1
:1014D00008240800F110080081F0004102E000BF7C
:1014E00083F0004330B54FEA41044FEA430594EAE4
:1014F000050F08BF90EA020F1FBF54EA000C55EA1F
:10150000020C7FEA645C7FEA655C00F0E2804FEAEF
:101510005454D4EB5555B8BF6D420CDD2C4480EAD1
:10152000020281EA030382EA000083EA010180EA01
:10153000020281EA0303362D88BF30BD11F0004F4F
:101540004FEA01314FF4801C4CEA113102D0404285
:1015500061EB410113F0004F4FEA03334CEA1333C0
:1015600002D0524263EB430394EA050F00F0A780D8
:10157000A4F10104D5F1200E0DDB02FA0EFC22FAD3
:1015800005F2801841F1000103FA0EF2801843FAC7
:1015900005F359410EE0A5F120050EF1200E012AB8
:1015A00003FA0EFC28BF4CF0020C43FA05F3C018F6
:1015B00051EBE37101F0004507D54FF0000EDCF16F
:1015C000000C7EEB00006EEB0101B1F5801F1BD318
:1015D000B1F5001F0CD349085FEA30004FEA3C0C1C
:1015E00004F101044FEA445212F5800F80F09A8012
:1015F000BCF1004F08BF5FEA500C50F1000041EB16
:10160000045141EA050130BD5FEA4C0C404141EB19
:10161000010111F4801FA4F10104E9D191F0000F40
:1016200004BF01460020B1FA81F308BF2033A3F1C3
:101630000B03B3F120020CDA0C3208DD02F1140CBA
:10164000C2F10C0201FA0CF021FA02F10CE002F1F5
:101650001402D8BFC2F1200C01FA02F120FA0CFCEE
:10166000DCBF41EA0C019040E41AA2BF01EB045137
:10167000294330BD6FEA04041F3C1CDA0C340EDC35
:1016800004F11404C4F1200220FA04F001FA02F378
:1016900040EA030021FA04F345EA030130BDC4F136
:1016A0000C04C4F1200220FA02F001FA04F340EA2B
:1016B0000300294630BD21FA04F0294630BD94F0DC
:1016C000000F83F4801306BF81F480110134013DC3
:1016D0004EE77FEA645C18BF7FEA655C29D094EA34
:1016E000050F08BF90EA020F05D054EA000C04BFB2
:1016F0001946104630BD91EA030F1EBF002100209D
:1017000030BD5FEA545C05D14000494128BF41F03B
:10171000004130BD14F580043CBF01F5801130BD9F
:1017200001F0004545F0FE4141F470014FF000002A
:1017300030BD7FEA645C1ABF194610467FEA655CDB
:101740001CBF0B46024650EA013406BF52EA03357D
:1017500091EA030F41F4002130BD00BF90F0000F6B
:1017600004BF0021704730B54FF4806404F13204A7
:101770004FF000054FF0000150E700BF90F0000F60
:1017800004BF0021704730B54FF4806404F1320487
:1017900010F0004548BF40424FF000013EE700BF57
:1017A00042004FEAE2014FEA31014FEA02701FBFE7
:1017B00012F07F4393F07F4F81F06051704792F0B9
:1017C000000F14BF93F07F4F704730B54FF4607433
:1017D00001F0004521F0004120E700BF50EA01027E
:1017E00008BF704730B54FF000050AE050EA01022B
:1017F00008BF704730B511F0004502D5404261EB9B
:1018000041014FF4806404F132045FEA915C3FF4DB
:10181000DCAE4FF003025FEADC0C18BF03325FEA74
:10182000DC0C18BF033202EBDC02C2F1200300FA29
:1018300003FC20FA02F001FA03FE40EA0E0021FA4E
:1018400002F11444C1E600BF70B54FF0FF0C4CF438
:10185000E06C1CEA11541DBF1CEA135594EA0C0FEE
:1018600095EA0C0F00F0DEF82C4481EA030621EA29
:101870004C5123EA4C5350EA013518BF52EA033564
:1018800041F4801143F4801338D0A0FB02CE4FF016
:101890000005E1FB02E506F00042E0FB03E54FF046
:1018A0000006E1FB03569CF0000F18BF4EF0010E3E
:1018B000A4F1FF04B6F5007F64F5407404D25FEA3A
:1018C0004E0E6D4146EB060642EAC62141EA5551ED
:1018D0004FEAC52040EA5E504FEACE2EB4F1FD0C2F
:1018E00088BFBCF5E06F1ED8BEF1004F08BF5FEAAD
:1018F000500E50F1000041EB045170BD06F000465F
:1019000046EA010140EA020081EA0301B4EB5C040B
:10191000C2BFD4EB0C0541EA045170BD41F4801103
:101920004FF0000E013C00F3AB8014F1360FDEBF28
:10193000002001F0004170BDC4F10004203C35DA04
:101940000C341BDC04F11404C4F1200500FA05F387
:1019500020FA04F001FA05F240EA020001F0004228
:1019600021F0004110EBD37021FA04F642EB06019E
:101970005EEA430E08BF20EAD37070BDC4F10C04C8
:10198000C4F1200500FA04F320FA05F001FA04F28C
:1019900040EA020001F0004110EBD37041F1000178
:1019A0005EEA430E08BF20EAD37070BDC4F1200583
:1019B00000FA05F24EEA020E20FA04F301FA05F2EB
:1019C00043EA020321FA04F001F0004121FA04F293
:1019D00020EA020000EBD3705EEA430E08BF20EA63
:1019E000D37070BD94F0000F0FD101F0004640009D
:1019F00041EB010111F4801F08BF013CF7D041EA1F
:101A0000060195F0000F18BF704703F00046520022
:101A100043EB030313F4801F08BF013DF7D043EAF3
:101A20000603704794EA0C0F0CEA135518BF95EAA9
:101A30000C0F0CD050EA410618BF52EA4306D1D130
:101A400081EA030101F000414FF0000070BD50EA4F
:101A5000410606BF1046194652EA430619D094EAD9
:101A60000C0F02D150EA013613D195EA0C0F05D1C3
:101A700052EA03361CBF104619460AD181EA030117
:101A800001F0004141F0FE4141F470014FF00000CF
:101A900070BD41F0FE4141F4780170BD70B54FF06A
:101AA000FF0C4CF4E06C1CEA11541DBF1CEA1355EA
:101AB00094EA0C0F95EA0C0F00F0A7F8A4EB0504CC
:101AC00081EA030E52EA03354FEA013100F08880C3
:101AD0004FEA03334FF0805545EA131343EA12638C
:101AE0004FEA022245EA111545EA10654FEA002641
:101AF0000EF000419D4208BF964244F1FD0404F5FA
:101B0000407402D25B084FEA3202B61A65EB030555
:101B10005B084FEA32024FF480104FF4002CB6EB12
:101B2000020E75EB030E22BFB61A754640EA0C0092
:101B30005B084FEA3202B6EB020E75EB030E22BFD2
:101B4000B61A754640EA5C005B084FEA3202B6EB13
:101B5000020E75EB030E22BFB61A754640EA9C00D2
:101B60005B084FEA3202B6EB020E75EB030E22BFA2
:101B7000B61A754640EADC0055EA060E18D04FEA60
:101B8000051545EA16754FEA06164FEAC30343EA00
:101B900052734FEAC2025FEA1C1CC0D111F4801FCD
:101BA0000BD141EA00014FF000004FF0004CB6E7C6
:101BB00011F4801F04BF01430020B4F1FD0C88BF65
:101BC000BCF5E06F3FF6AFAEB5EB030C04BFB6EB70
:101BD000020C5FEA500C50F1000041EB045170BD63
:101BE0000EF0004E4EEA113114EB5C04C2BFD4EB90
:101BF0000C0541EA045170BD41F480114FF0000E14
:101C0000013C90E645EA060E8DE60CEA135594EA8F
:101C10000C0F08BF95EA0C0F3FF43BAF94EA0C0F92
:101C20000AD150EA01347FF434AF95EA0C0F7FF407
:101C300025AF104619462CE795EA0C0F06D152EA5B
:101C400003353FF4FDAE1046194622E750EA41063F
:101C500018BF52EA43067FF4C5AE50EA41047FF450
:101C60000DAF52EA43057FF4EBAE12E74A0011D202
:101C700012F5001211D20DD56FF47873B3EB6252E6
:101C80000ED44FEAC12343F0004343EA505323FAF2
:101C900002F070474FF00000704750EA013002D167
:101CA0004FF0FF3070474FF00000704780F0004069
:101CB00002E000BF81F0004142001FBF5FEA410324
:101CC00092EA030F7FEA226C7FEA236C6AD04FEA24
:101CD0001262D2EB1363C1BFD21841404840414069
:101CE000B8BF5B42192B88BF704710F0004F40F41B
:101CF000000020F07F4018BF404211F0004F41F437
:101D0000000121F07F4118BF494292EA030F3FD002
:101D1000A2F1010241FA03FC10EB0C00C3F1200315
:101D200001FA03F100F0004302D5494260EB4000A4
:101D3000B0F5000F13D3B0F1807F06D340084FEA0F
:101D4000310102F10102FE2A51D2B1F1004F40EB04
:101D5000C25008BF20F0010040EA0300704749006C
:101D600040EB000010F4000FA2F10102EDD1B0FA37
:101D700080FCACF1080CB2EB0C0200FA0CF0AABF2C
:101D800000EBC25052421843BCBFD04018437047CA
:101D900092F0000F81F4000106BF80F400000132D0
:101DA000013BB5E74FEA41037FEA226C18BF7FEAA7
:101DB000236C21D092EA030F04D092F0000F08BFE9
:101DC0000846704790EA010F1CBF0020704712F0D0
:101DD0007F4F04D1400028BF40F00040704712F10F
:101DE00000723CBF00F50000704700F0004343F074
:101DF000FE4040F4000070477FEA226216BF0846AA
:101E00007FEA23630146420206BF5FEA412390EA6C
:101E1000010F40F4800070474FF0000304E000BF62
:101E200010F0004348BF40425FEA000C08BF704713
:101E300043F0964301464FF000001CE050EA0102D7
:101E400008BF70474FF000030AE000BF50EA0102EC
:101E500008BF704711F0004302D5404261EB4101D9
:101E60005FEA010C02BF84460146002043F0B643FE
:101E700008BFA3F18053A3F50003BCFA8CF2083A23
:101E8000A3EBC25310DB01FA02FC634400FA02FC2C
:101E9000C2F12002BCF1004F20FA02F243EB020033
:101EA00008BF20F00100704702F1200201FA02FC95
:101EB000C2F1200250EA4C0021FA02F243EB020088
:101EC00008BF20EADC7070474FF0FF0C1CEAD052CC
:101ED0001EBF1CEAD15392EA0C0F93EA0C0F6FD08D
:101EE0001A4480EA010C400218BF5FEA41211ED06B
:101EF0004FF0006343EA501043EA5111A0FB013157
:101F00000CF00040B1F5000F3EBF490041EAD3712B
:101F10005B0040EA010062F17F02FD2A1DD8B3F1A7
:101F2000004F40EBC25008BF20F00100704790F016
:101F3000000F0CF0004C08BF49024CEA502040EA68
:101F400051207F3AC2BFD2F1FF0340EAC25070472E
:101F500040F400004FF00003013A5DDC12F1190F6C
:101F6000DCBF00F000407047C2F10002410021FADE
:101F700002F1C2F1200200FA02FC5FEA310040F1F6
:101F8000000053EA4C0308BF20EADC70704792F06F
:101F9000000F00F0004C02BF400010F4000F013AA7
:101FA000F9D040EA0C0093F0000F01F0004C02BFA2
:101FB000490011F4000F013BF9D041EA0C018FE711
:101FC0000CEAD15392EA0C0F18BF93EA0C0F0AD017
:101FD00030F0004C18BF31F0004CD8D180EA01003D
:101FE00000F00040704790F0000F17BF90F0004FD6
:101FF000084691F0000F91F0004F14D092EA0C0FB8
:1020000001D142020FD193EA0C0F03D14B0218BF4A
:10201000084608D180EA010000F0004040F0FE4090
:1020200040F40000704740F0FE4040F4400070472C
:102030004FF0FF0C1CEAD0521EBF1CEAD15392EAAB
:102040000C0F93EA0C0F69D0A2EB030280EA010C9B
:1020500049024FEA402037D04FF0805343EA111134
:1020600043EA10130CF000408B4238BF5B0042F192
:102070007D024FF4000C8B4224BF5B1A40EA0C0037
:10208000B3EB510F24BFA3EB510340EA5C00B3EB69
:10209000910F24BFA3EB910340EA9C00B3EBD10F57
:1020A00024BFA3EBD10340EADC001B0118BF5FEAA9
:1020B0001C1CE0D1FD2A3FF650AF8B4240EBC250D2
:1020C00008BF20F0010070470CF0004C4CEA502093
:1020D0007F32C2BFD2F1FF0340EAC250704740F4E2
:1020E00000004FF00003013A37E792F0000F00F0D4
:1020F000004C02BF400010F4000F013AF9D040EA52
:102100000C0093F0000F01F0004C02BF490011F4E5
:10211000000F013BF9D041EA0C0195E70CEAD153DD
:1021200092EA0C0F08D142027FF47DAF93EA0C0FC4
:102130007FF470AF084676E793EA0C0F04D14B02A8
:102140003FF44CAF08466EE730F0004C18BF31F05A
:10215000004CCAD130F000427FF45CAF31F0004354
:102160007FF43CAF5FE700BF4FEA4002B2F1FE4FA1
:102170000FD34FF09E03B3EB12620DD94FEA002349
:1021800043F0004310F0004F23FA02F018BF404222
:1021900070474FF00000704712F1610F01D1420209
:1021A00005D110F0004008BF6FF0004070474FF0BD
:1021B0000000704770B50F4E0F4D761BB61018BF5C
:1021C000002405D0013455F8043B9847A642F9D1C4
:1021D0000A4E0B4D00F02AF9761BB61018BF0024EA
:1021E00006D0013455F8043B9847A642F9D170BD9A
:1021F00070BD00BF382408003824080040240800BF
:1022000038240800024B13B1024800F005B87047AB
:102210000000000025220800002301461A46184647
:1022200000F01EB838B50A4C0A4D641BA4100AD041
:1022300004F18043013B05EB8305013C55F804396B
:102240009847002CF9D1BDE8384000F0F9B800BF3C
:10225000502408004C240800704700BF704700BF9E
:102260002DE9F8432C4D0646286898460F469146BE
:10227000FFF7F2FF294B1C68D4F84831002B3ED001
:102280005A681F2A1CDC02F1010E76B1012103EB12
:102290008204C4F88890D3F8880191400843022E44
:1022A000C3F88801C4F8088123D00232C3F804E0DF
:1022B000286843F82270FFF7D1FF0020BDE8F883BB
:1022C000174B0BB34FF4C870AFF300800346D8B17F
:1022D0000020D4F848114FF0010E586019600246F2
:1022E000C4F84831C3F88801C3F88C01002EDCD053
:1022F000CCE7D3F88C010143C3F88C11D5E704F582
:10230000A673C4F84831BBE72868FFF7A7FF4FF072
:10231000FF30BDE8F88300BF300400202824080007
:102320000000000045583520726563696576656474
:10233000200D0000446174613A202573200D0000D7
:10234000455836207265636965766564200D000026
:102350004A6F79737469636B20646174613A2025F4
:1023600064200D0053656E64742073746172742070
:102370000D00000053656E64742073746F70200D3F
:102380000000000053656E647420676F616C200D5F
:10239000000000002564200D000000004E4555544B
:1023A00052414C200D0000005550200D000000004F
:1023B000444F574E200D00004C454654200D000060
:1023C0005249474854200D00444952204552524F2B
:1023D00052200D002564200900000000474F414CA9
:1023E0002054524947474552454421200D000000E2
:1023F0005072696E74662066756E6B6572200D0092
:10240000286E756C6C2900004552523A2055415295
:102410005420525820627566666572206973206682
:10242000756C6C0A0D00000008000020F8B500BFB4
:10243000F8BC08BC9E467047052208001901080038
:10244000F8B500BFF8BC08BC9E467047F500080010
:1024500000093D000000000000000000F402002020
:102460005C030020C4030020000000000000000006
:10247000000000000000000000000000000000005C
:10248000000000000000000000000000000000004C
:10249000000000000000000000000000000000003C
:1024A000000000000000000000000000000000002C
:1024B000000000000000000000000000000000001C
:1024C000000000000000000000000000000000000C
:1024D00000000000000000000000000000000000FC
:1024E00000000000000000000000000000000000EC
:1024F00000000000000000000000000000000000DC
:1025000001000000000000000E33CDAB34126DE678
:10251000ECDE05000B0000000000000000000000E1
:1025200000000000000000000000000000000000AB
:10253000000000000000000000000000000000009B
:10254000000000000000000000000000000000008B
:10255000000000000000000000000000000000007B
:0428800038050020F7
:04000005200004D8FB
:00000001FF
